:020000001fffe0
:020001001fffdf
:020002001fffde
:020003001fffdd
:020004001fffdc
:020005001fffdb
:020006001fffda
:020007001fffd9
:020008001fffd8
:020009001fffd7
:02000a001fffd6
:02000b001fffd5
:02000c001fffd4
:02000d001fffd3
:02000e001fffd2
:02000f001fffd1
:020010001fffd0
:020011001fffcf
:020012001fffce
:020013001fffcd
:020014001fffcc
:020015001fffcb
:020016001fffca
:020017001fffc9
:020018001fffc8
:020019001fffc7
:02001a001fffc6
:02001b001fffc5
:02001c001fffc4
:02001d001ffec4
:02001e001ffec3
:02001f001ffec2
:020020001ffec1
:020021001ffec0
:020022001ffebf
:020023001ffebe
:020024001ffebd
:020025001ffebc
:020026001ffebb
:020027001ffeba
:020028001ffeb9
:020029001ffeb8
:02002a001ffeb7
:02002b001ffeb6
:02002c001ffeb5
:02002d001ffeb4
:02002e001ffeb3
:02002f001ffeb2
:020030001ffeb1
:020031001ffeb0
:020032001ffdb0
:020033001ffdaf
:020034001ffdae
:020035001ffdad
:020036001ffdac
:020037001ffdab
:020038001ffdaa
:020039001ffda9
:02003a001ffda8
:02003b001ffda7
:02003c001ffda6
:02003d001ffda5
:02003e001ffda4
:02003f001ffda3
:020040001ffda2
:020041001ffca2
:020042001ffca1
:020043001ffca0
:020044001ffc9f
:020045001ffc9e
:020046001ffc9d
:020047001ffc9c
:020048001ffc9b
:020049001ffc9a
:02004a001ffc99
:02004b001ffc98
:02004c001ffc97
:02004d001ffb97
:02004e001ffb96
:02004f001ffb95
:020050001ffb94
:020051001ffb93
:020052001ffb92
:020053001ffb91
:020054001ffb90
:020055001ffb8f
:020056001ffb8e
:020057001ffa8e
:020058001ffa8d
:020059001ffa8c
:02005a001ffa8b
:02005b001ffa8a
:02005c001ffa89
:02005d001ffa88
:02005e001ffa87
:02005f001ffa86
:020060001ff986
:020061001ff985
:020062001ff984
:020063001ff983
:020064001ff982
:020065001ff981
:020066001ff980
:020067001ff97f
:020068001ff87f
:020069001ff87e
:02006a001ff87d
:02006b001ff87c
:02006c001ff87b
:02006d001ff87a
:02006e001ff879
:02006f001ff878
:020070001ff778
:020071001ff777
:020072001ff776
:020073001ff775
:020074001ff774
:020075001ff773
:020076001ff772
:020077001ff672
:020078001ff671
:020079001ff670
:02007a001ff66f
:02007b001ff66e
:02007c001ff66d
:02007d001ff66c
:02007e001ff56c
:02007f001ff56b
:00000001FF
