:020000001fffe0
:020001001ff5e9
:020002001fd805
:020003001fa636
:020004001f6279
:020005001f0ad0
:020006001e9e3c
:020007001e20b9
:020008001d8f4a
:020009001cedec
:02000a001c38a0
:02000b001b7266
:02000c001a9b3d
:02000d0019b325
:02000e0018bc1c
:02000f0017b523
:0200100016a038
:02001100157d5b
:02001200144c8c
:02001300130fc9
:0200140011c712
:02001500107366
:020016000f15c4
:020017000dae2c
:020018000c3f9b
:020019000ac714
:02001a00094a91
:02001b0007c616
:02001c00063e9e
:02001d0004b22b
:02001e000323ba
:02001f0001924c
:020020000000de
:020021003e6e31
:020022003cddc3
:020023003b4e52
:0200240039c2df
:02002500383a67
:0200260036b6ec
:02002700353969
:0200280033c1e2
:02002900325251
:02002a0030ebb9
:02002b002f8d17
:02002c002e396b
:02002d002cf1b4
:02002e002bb4f1
:02002f002a8322
:02003000296045
:02003100284b5a
:02003200274461
:02003300264d58
:02003400256540
:02003500248e17
:0200360023c8dd
:02003700231391
:02003800227133
:0200390021e0c4
:02003a00216241
:02003b0020f6ad
:02003c00209e04
:02003d00205a47
:02003e00202878
:02003f00200b94
:0200400020019d
:02004100200b92
:02004200202874
:02004300205a41
:02004400209efc
:0200450020f6a3
:02004600216235
:0200470021e0b6
:02004800227123
:0200490023137f
:02004a0023c8c9
:02004b00248e01
:02004c00256528
:02004d00264d3e
:02004e00274445
:02004f00284b3c
:02005000296025
:020051002a8300
:020052002bb4cd
:020053002cf18e
:020054002e3943
:020055002f8ded
:0200560030eb8d
:02005700325223
:0200580033c1b2
:02005900353937
:02005a0036b6b8
:02005b00383a31
:02005c0039c2a7
:02005d003b4e18
:02005e003cdd87
:02005f003e6ef3
:0200600000009e
:0200610001920a
:02006200032376
:0200630004b2e5
:02006400063e56
:0200650007c6cc
:02006600094a45
:020067000ac7c6
:020068000c3f4b
:020069000daeda
:02006a000f1570
:02006b00107310
:02006c0011c7ba
:02006d00130f6f
:02006e00144c30
:02006f00157dfd
:0200700016a0d8
:0200710017b5c1
:0200720018bcb8
:0200730019b3bf
:020074001a9bd5
:020075001b72fc
:020076001c3834
:020077001ced7e
:020078001d8fda
:020079001e2047
:02007a001e9ec8
:02007b001f0a5a
:02007c001f6201
:02007d001fa6bc
:02007e001fd889
:02007f001ff56b
:00000001FF
