:020000000000fe
:020001000003fa
:020002000006f6
:020003000009f2
:02000400000ded
:020005000010e9
:020006000013e5
:020007000016e1
:020008000019dd
:02000900001cd9
:02000a00001fd5
:02000b000023d0
:02000c000026cc
:02000d000029c8
:02000e00002cc4
:02000f00002fc0
:020010000032bc
:020011000035b8
:020012000039b3
:02001300003caf
:02001400003fab
:020015000042a7
:020016000045a3
:0200170000489f
:02001800004b9b
:02001900004f96
:02001a00005292
:02001b0000558e
:02001c0000588a
:02001d00005b86
:02001e00005e82
:02001f0000617e
:02002000006579
:02002100006875
:02002200006b71
:02002300006e6d
:02002400007169
:02002500007465
:02002600007761
:02002700007b5c
:02002800007e58
:02002900008154
:02002a00008450
:02002b0000874c
:02002c00008a48
:02002d00008d44
:02002e00009040
:02002f0000943b
:02003000009737
:02003100009a33
:02003200009d2f
:0200330000a02b
:0200340000a327
:0200350000a623
:0200360000aa1e
:0200370000ad1a
:0200380000b016
:0200390000b312
:02003a0000b60e
:02003b0000b90a
:02003c0000bc06
:02003d0000c001
:02003e0000c3fd
:02003f0000c6f9
:0200400000c9f5
:0200410000ccf1
:0200420000cfed
:0200430000d2e9
:0200440000d6e4
:0200450000d9e0
:0200460000dcdc
:0200470000dfd8
:0200480000e2d4
:0200490000e5d0
:02004a0000e8cc
:02004b0000ecc7
:02004c0000efc3
:02004d0000f2bf
:02004e0000f5bb
:02004f0000f8b7
:0200500000fbb3
:0200510000feaf
:020052000102a9
:020053000105a5
:020054000108a1
:02005500010b9d
:02005600010e99
:02005700011195
:02005800011491
:0200590001188c
:02005a00011b88
:02005b00011e84
:02005c00012180
:02005d0001247c
:02005e00012778
:02005f00012a74
:02006000012d70
:0200610001316b
:02006200013467
:02006300013763
:02006400013a5f
:02006500013d5b
:02006600014057
:02006700014353
:0200680001474e
:02006900014a4a
:02006a00014d46
:02006b00015042
:02006c0001533e
:02006d0001563a
:02006e00015936
:02006f00015d31
:0200700001602d
:02007100016329
:02007200016625
:02007300016921
:02007400016c1d
:02007500016f19
:02007600017314
:02007700017610
:0200780001790c
:02007900017c08
:02007a00017f04
:02007b00018200
:02007c000185fc
:02007d000189f7
:02007e00018cf3
:02007f00018fef
:00000001FF
