:020000000ffff0
:020001000fffef
:020002000fffee
:020003000fffed
:020004000fffec
:020005000fffeb
:020006000fffea
:020007000fffe9
:020008000fffe8
:020009000fffe7
:02000a000fffe6
:02000b000ffee6
:02000c000ffee5
:02000d000ffee4
:02000e000ffee3
:02000f000ffee2
:020010000ffee1
:020011000ffee0
:020012000ffde0
:020013000ffddf
:020014000ffdde
:020015000ffddd
:020016000ffddc
:020017000ffcdc
:020018000ffcdb
:020019000ffcda
:02001a000ffcd9
:02001b000ffbd9
:02001c000ffbd8
:02001d000ffbd7
:02001e000ffbd6
:02001f000ffad6
:020020000ffad5
:020021000ffad4
:020022000ff9d4
:020023000ff9d3
:020024000ff9d2
:020025000ff8d2
:020026000ff8d1
:020027000ff8d0
:020028000ff7d0
:020029000ff7cf
:02002a000ff7ce
:02002b000ff6ce
:02002c000ff6cd
:02002d000ff5cd
:02002e000ff5cc
:02002f000ff4cc
:020030000ff4cb
:020031000ff3cb
:020032000ff3ca
:020033000ff2ca
:020034000ff2c9
:020035000ff1c9
:020036000ff1c8
:020037000ff0c8
:020038000ff0c7
:020039000fefc7
:02003a000fefc6
:02003b000feec6
:02003c000feec5
:02003d000fedc5
:02003e000fecc5
:02003f000fecc4
:020040000febc4
:020041000febc3
:020042000feac3
:020043000fe9c3
:020044000fe9c2
:020045000fe8c2
:020046000fe7c2
:020047000fe7c1
:020048000fe6c1
:020049000fe5c1
:02004a000fe5c0
:02004b000fe4c0
:02004c000fe3c0
:02004d000fe2c0
:02004e000fe2bf
:02004f000fe1bf
:020050000fe0bf
:020051000fdfbf
:020052000fdfbe
:020053000fdebe
:020054000fddbe
:020055000fdcbe
:020056000fdbbe
:020057000fdbbd
:020058000fdabd
:020059000fd9bd
:02005a000fd8bd
:02005b000fd7bd
:02005c000fd6bd
:02005d000fd5bd
:02005e000fd5bc
:02005f000fd4bc
:020060000fd3bc
:020061000fd2bc
:020062000fd1bc
:020063000fd0bc
:020064000fcfbc
:020065000fcebc
:020066000fcdbc
:020067000fccbc
:020068000fcbbc
:020069000fcabc
:02006a000fc9bc
:02006b000fc8bc
:02006c000fc7bc
:02006d000fc6bc
:02006e000fc5bc
:02006f000fc4bc
:020070000fc3bc
:020071000fc2bc
:020072000fc1bc
:020073000fbfbd
:020074000fbebd
:020075000fbdbd
:020076000fbcbd
:020077000fbbbd
:020078000fbabd
:020079000fb9bd
:02007a000fb7be
:02007b000fb6be
:02007c000fb5be
:02007d000fb4be
:02007e000fb3be
:02007f000fb2be
:020080000fb0bf
:020081000fafbf
:020082000faebf
:020083000fadbf
:020084000fabc0
:020085000faac0
:020086000fa9c0
:020087000fa8c0
:020088000fa6c1
:020089000fa5c1
:02008a000fa4c1
:02008b000fa2c2
:02008c000fa1c2
:02008d000fa0c2
:02008e000f9ec3
:02008f000f9dc3
:020090000f9cc3
:020091000f9ac4
:020092000f99c4
:020093000f97c5
:020094000f96c5
:020095000f95c5
:020096000f93c6
:020097000f92c6
:020098000f90c7
:020099000f8fc7
:02009a000f8dc8
:02009b000f8cc8
:02009c000f8ac9
:02009d000f89c9
:02009e000f87ca
:02009f000f86ca
:0200a0000f84cb
:0200a1000f83cb
:0200a2000f81cc
:0200a3000f80cc
:0200a4000f7ecd
:0200a5000f7dcd
:0200a6000f7bce
:0200a7000f79cf
:0200a8000f78cf
:0200a9000f76d0
:0200aa000f75d0
:0200ab000f73d1
:0200ac000f71d2
:0200ad000f70d2
:0200ae000f6ed3
:0200af000f6cd4
:0200b0000f6bd4
:0200b1000f69d5
:0200b2000f67d6
:0200b3000f66d6
:0200b4000f64d7
:0200b5000f62d8
:0200b6000f60d9
:0200b7000f5fd9
:0200b8000f5dda
:0200b9000f5bdb
:0200ba000f59dc
:0200bb000f58dc
:0200bc000f56dd
:0200bd000f54de
:0200be000f52df
:0200bf000f50e0
:0200c0000f4fe0
:0200c1000f4de1
:0200c2000f4be2
:0200c3000f49e3
:0200c4000f47e4
:0200c5000f45e5
:0200c6000f44e5
:0200c7000f42e6
:0200c8000f40e7
:0200c9000f3ee8
:0200ca000f3ce9
:0200cb000f3aea
:0200cc000f38eb
:0200cd000f36ec
:0200ce000f34ed
:0200cf000f32ee
:0200d0000f30ef
:0200d1000f2ef0
:0200d2000f2cf1
:0200d3000f2af2
:0200d4000f28f3
:0200d5000f26f4
:0200d6000f24f5
:0200d7000f22f6
:0200d8000f20f7
:0200d9000f1ef8
:0200da000f1cf9
:0200db000f1afa
:0200dc000f18fb
:0200dd000f16fc
:0200de000f14fd
:0200df000f12fe
:0200e0000f10ff
:0200e1000f0e00
:0200e2000f0b02
:0200e3000f0903
:0200e4000f0704
:0200e5000f0505
:0200e6000f0306
:0200e7000f0107
:0200e8000efe0a
:0200e9000efc0b
:0200ea000efa0c
:0200eb000ef80d
:0200ec000ef60e
:0200ed000ef310
:0200ee000ef111
:0200ef000eef12
:0200f0000eed13
:0200f1000eea15
:0200f2000ee816
:0200f3000ee617
:0200f4000ee319
:0200f5000ee11a
:0200f6000edf1b
:0200f7000edd1c
:0200f8000eda1e
:0200f9000ed81f
:0200fa000ed620
:0200fb000ed322
:0200fc000ed123
:0200fd000ece25
:0200fe000ecc26
:0200ff000eca27
:020100000ec728
:020101000ec529
:020102000ec22b
:020103000ec02c
:020104000ebe2d
:020105000ebb2f
:020106000eb930
:020107000eb632
:020108000eb433
:020109000eb135
:02010a000eaf36
:02010b000eac38
:02010c000eaa39
:02010d000ea73b
:02010e000ea53c
:02010f000ea23e
:020110000ea03f
:020111000e9d41
:020112000e9b42
:020113000e9844
:020114000e9546
:020115000e9347
:020116000e9049
:020117000e8e4a
:020118000e8b4c
:020119000e884e
:02011a000e864f
:02011b000e8351
:02011c000e8152
:02011d000e7e54
:02011e000e7b56
:02011f000e7957
:020120000e7659
:020121000e735b
:020122000e705d
:020123000e6e5e
:020124000e6b60
:020125000e6862
:020126000e6663
:020127000e6365
:020128000e6067
:020129000e5d69
:02012a000e5b6a
:02012b000e586c
:02012c000e556e
:02012d000e5270
:02012e000e4f72
:02012f000e4d73
:020130000e4a75
:020131000e4777
:020132000e4479
:020133000e417b
:020134000e3e7d
:020135000e3c7e
:020136000e3980
:020137000e3682
:020138000e3384
:020139000e3086
:02013a000e2d88
:02013b000e2a8a
:02013c000e278c
:02013d000e248e
:02013e000e2190
:02013f000e1e92
:020140000e1b94
:020141000e1995
:020142000e1697
:020143000e1399
:020144000e109b
:020145000e0d9d
:020146000e0a9f
:020147000e07a1
:020148000e04a3
:020149000e00a6
:02014a000dfda9
:02014b000dfaab
:02014c000df7ad
:02014d000df4af
:02014e000df1b1
:02014f000deeb3
:020150000debb5
:020151000de8b7
:020152000de5b9
:020153000de2bb
:020154000ddfbd
:020155000ddbc0
:020156000dd8c2
:020157000dd5c4
:020158000dd2c6
:020159000dcfc8
:02015a000dccca
:02015b000dc8cd
:02015c000dc5cf
:02015d000dc2d1
:02015e000dbfd3
:02015f000dbcd5
:020160000db8d8
:020161000db5da
:020162000db2dc
:020163000dafde
:020164000dabe1
:020165000da8e3
:020166000da5e5
:020167000da2e7
:020168000d9eea
:020169000d9bec
:02016a000d98ee
:02016b000d94f1
:02016c000d91f3
:02016d000d8ef5
:02016e000d8af8
:02016f000d87fa
:020170000d84fc
:020171000d80ff
:020172000d7d01
:020173000d7a03
:020174000d7606
:020175000d7308
:020176000d6f0b
:020177000d6c0d
:020178000d690f
:020179000d6512
:02017a000d6214
:02017b000d5e17
:02017c000d5b19
:02017d000d571c
:02017e000d541e
:02017f000d5021
:020180000d4d23
:020181000d4926
:020182000d4628
:020183000d422b
:020184000d3f2d
:020185000d3b30
:020186000d3832
:020187000d3435
:020188000d3137
:020189000d2d3a
:02018a000d2a3c
:02018b000d263f
:02018c000d2242
:02018d000d1f44
:02018e000d1b47
:02018f000d1849
:020190000d144c
:020191000d104f
:020192000d0d51
:020193000d0954
:020194000d0557
:020195000d0259
:020196000cfe5d
:020197000cfa60
:020198000cf762
:020199000cf365
:02019a000cef68
:02019b000cec6a
:02019c000ce86d
:02019d000ce470
:02019e000ce172
:02019f000cdd75
:0201a0000cd978
:0201a1000cd57b
:0201a2000cd27d
:0201a3000cce80
:0201a4000cca83
:0201a5000cc686
:0201a6000cc388
:0201a7000cbf8b
:0201a8000cbb8e
:0201a9000cb791
:0201aa000cb394
:0201ab000cb096
:0201ac000cac99
:0201ad000ca89c
:0201ae000ca49f
:0201af000ca0a2
:0201b0000c9ca5
:0201b1000c98a8
:0201b2000c95aa
:0201b3000c91ad
:0201b4000c8db0
:0201b5000c89b3
:0201b6000c85b6
:0201b7000c81b9
:0201b8000c7dbc
:0201b9000c79bf
:0201ba000c75c2
:0201bb000c71c5
:0201bc000c6dc8
:0201bd000c69cb
:0201be000c65ce
:0201bf000c61d1
:0201c0000c5dd4
:0201c1000c59d7
:0201c2000c55da
:0201c3000c51dd
:0201c4000c4de0
:0201c5000c49e3
:0201c6000c45e6
:0201c7000c41e9
:0201c8000c3dec
:0201c9000c39ef
:0201ca000c35f2
:0201cb000c31f5
:0201cc000c2df8
:0201cd000c29fb
:0201ce000c25fe
:0201cf000c2101
:0201d0000c1d04
:0201d1000c1907
:0201d2000c150a
:0201d3000c100e
:0201d4000c0c11
:0201d5000c0814
:0201d6000c0417
:0201d7000c001a
:0201d8000bfc1e
:0201d9000bf821
:0201da000bf325
:0201db000bef28
:0201dc000beb2b
:0201dd000be72e
:0201de000be331
:0201df000bde35
:0201e0000bda38
:0201e1000bd63b
:0201e2000bd23e
:0201e3000bce41
:0201e4000bc945
:0201e5000bc548
:0201e6000bc14b
:0201e7000bbc4f
:0201e8000bb852
:0201e9000bb455
:0201ea000bb058
:0201eb000bab5c
:0201ec000ba75f
:0201ed000ba362
:0201ee000b9e66
:0201ef000b9a69
:0201f0000b966c
:0201f1000b9170
:0201f2000b8d73
:0201f3000b8976
:0201f4000b847a
:0201f5000b807d
:0201f6000b7c80
:0201f7000b7784
:0201f8000b7387
:0201f9000b6f8a
:0201fa000b6a8e
:0201fb000b6691
:0201fc000b6195
:0201fd000b5d98
:0201fe000b589c
:0201ff000b549f
:020200000b50a1
:020201000b4ba5
:020202000b47a8
:020203000b42ac
:020204000b3eaf
:020205000b39b3
:020206000b35b6
:020207000b30ba
:020208000b2cbd
:020209000b27c1
:02020a000b23c4
:02020b000b1ec8
:02020c000b1acb
:02020d000b15cf
:02020e000b11d2
:02020f000b0cd6
:020210000b08d9
:020211000b03dd
:020212000affe1
:020213000afae5
:020214000af5e9
:020215000af1ec
:020216000aecf0
:020217000ae8f3
:020218000ae3f7
:020219000adefb
:02021a000adafe
:02021b000ad502
:02021c000ad105
:02021d000acc09
:02021e000ac70d
:02021f000ac310
:020220000abe14
:020221000ab918
:020222000ab51b
:020223000ab01f
:020224000aab23
:020225000aa726
:020226000aa22a
:020227000a9d2e
:020228000a9931
:020229000a9435
:02022a000a8f39
:02022b000a8a3d
:02022c000a8640
:02022d000a8144
:02022e000a7c48
:02022f000a774c
:020230000a734f
:020231000a6e53
:020232000a6957
:020233000a645b
:020234000a605e
:020235000a5b62
:020236000a5666
:020237000a516a
:020238000a4c6e
:020239000a4871
:02023a000a4375
:02023b000a3e79
:02023c000a397d
:02023d000a3481
:02023e000a3084
:02023f000a2b88
:020240000a268c
:020241000a2190
:020242000a1c94
:020243000a1798
:020244000a129c
:020245000a0da0
:020246000a09a3
:020247000a04a7
:0202480009ffac
:0202490009fab0
:02024a0009f5b4
:02024b0009f0b8
:02024c0009ebbc
:02024d0009e6c0
:02024e0009e1c4
:02024f0009dcc8
:0202500009d7cc
:0202510009d2d0
:0202520009cdd4
:0202530009c8d8
:0202540009c4db
:0202550009bfdf
:0202560009bae3
:0202570009b5e7
:0202580009b0eb
:0202590009abef
:02025a0009a6f3
:02025b0009a1f7
:02025c00099cfb
:02025d00099600
:02025e00099104
:02025f00098c08
:0202600009870c
:02026100098210
:02026200097d14
:02026300097818
:0202640009731c
:02026500096e20
:02026600096924
:02026700096428
:02026800095f2c
:02026900095a30
:02026a00095534
:02026b00095038
:02026c00094a3d
:02026d00094541
:02026e00094045
:02026f00093b49
:0202700009364d
:02027100093151
:02027200092c55
:02027300092759
:0202740009215e
:02027500091c62
:02027600091766
:0202770009126a
:02027800090d6e
:02027900090773
:02027a00090277
:02027b0008fd7c
:02027c0008f880
:02027d0008f384
:02027e0008ed89
:02027f0008e88d
:0202800008e391
:0202810008de95
:0202820008d999
:0202830008d39e
:0202840008cea2
:0202850008c9a6
:0202860008c4aa
:0202870008beaf
:0202880008b9b3
:0202890008b4b7
:02028a0008afbb
:02028b0008a9c0
:02028c0008a4c4
:02028d00089fc8
:02028e000899cd
:02028f000894d1
:02029000088fd5
:02029100088ad9
:020292000884de
:02029300087fe2
:02029400087ae6
:020295000874eb
:02029600086fef
:02029700086af3
:020298000864f8
:02029900085ffc
:02029a00085901
:02029b00085405
:02029c00084f09
:02029d0008490e
:02029e00084412
:02029f00083f16
:0202a00008391b
:0202a10008341f
:0202a200082e24
:0202a300082928
:0202a40008242c
:0202a500081e31
:0202a600081935
:0202a70008133a
:0202a800080e3e
:0202a900080942
:0202aa00080347
:0202ab0007fe4c
:0202ac0007f851
:0202ad0007f355
:0202ae0007ed5a
:0202af0007e85e
:0202b00007e263
:0202b10007dd67
:0202b20007d76c
:0202b30007d270
:0202b40007cd74
:0202b50007c779
:0202b60007c27d
:0202b70007bc82
:0202b80007b786
:0202b90007b18b
:0202ba0007ac8f
:0202bb0007a694
:0202bc0007a099
:0202bd00079b9d
:0202be000795a2
:0202bf000790a6
:0202c000078aab
:0202c1000785af
:0202c200077fb4
:0202c300077ab8
:0202c4000774bd
:0202c500076fc1
:0202c6000769c6
:0202c7000763cb
:0202c800075ecf
:0202c9000758d4
:0202ca000753d8
:0202cb00074ddd
:0202cc000748e1
:0202cd000742e6
:0202ce00073ceb
:0202cf000737ef
:0202d0000731f4
:0202d100072cf8
:0202d2000726fd
:0202d300072002
:0202d400071b06
:0202d50007150b
:0202d600070f10
:0202d700070a14
:0202d800070419
:0202d90006fe1f
:0202da0006f923
:0202db0006f328
:0202dc0006ee2c
:0202dd0006e831
:0202de0006e236
:0202df0006dd3a
:0202e00006d73f
:0202e10006d144
:0202e20006cb49
:0202e30006c64d
:0202e40006c052
:0202e50006ba57
:0202e60006b55b
:0202e70006af60
:0202e80006a965
:0202e90006a469
:0202ea00069e6e
:0202eb00069873
:0202ec00069278
:0202ed00068d7c
:0202ee00068781
:0202ef00068186
:0202f000067b8b
:0202f10006768f
:0202f200067094
:0202f300066a99
:0202f40006649e
:0202f500065fa2
:0202f6000659a7
:0202f7000653ac
:0202f800064db1
:0202f9000648b5
:0202fa000642ba
:0202fb00063cbf
:0202fc000636c4
:0202fd000630c9
:0202fe00062bcd
:0202ff000625d2
:02030000061fd6
:020301000619db
:020302000613e0
:02030300060ee4
:020304000608e9
:020305000602ee
:0203060005fcf4
:0203070005f6f9
:0203080005f1fd
:0203090005eb02
:02030a0005e507
:02030b0005df0c
:02030c0005d911
:02030d0005d316
:02030e0005cd1b
:02030f0005c81f
:0203100005c224
:0203110005bc29
:0203120005b62e
:0203130005b033
:0203140005aa38
:0203150005a43d
:02031600059f41
:02031700059946
:0203180005934b
:02031900058d50
:02031a00058755
:02031b0005815a
:02031c00057b5f
:02031d00057564
:02031e00056f69
:02031f0005696e
:02032000056472
:02032100055e77
:0203220005587c
:02032300055281
:02032400054c86
:0203250005468b
:02032600054090
:02032700053a95
:0203280005349a
:02032900052e9f
:02032a000528a4
:02032b000522a9
:02032c00051cae
:02032d000516b3
:02032e000510b8
:02032f00050abd
:020330000505c1
:0203310004ffc7
:0203320004f9cc
:0203330004f3d1
:0203340004edd6
:0203350004e7db
:0203360004e1e0
:0203370004dbe5
:0203380004d5ea
:0203390004cfef
:02033a0004c9f4
:02033b0004c3f9
:02033c0004bdfe
:02033d0004b703
:02033e0004b108
:02033f0004ab0d
:0203400004a512
:02034100049f17
:0203420004991c
:02034300049321
:02034400048d26
:0203450004872b
:02034600048130
:02034700047b35
:0203480004753a
:02034900046f3f
:02034a00046845
:02034b0004624a
:02034c00045c4f
:02034d00045654
:02034e00045059
:02034f00044a5e
:02035000044463
:02035100043e68
:0203520004386d
:02035300043272
:02035400042c77
:0203550004267c
:02035600042081
:02035700041a86
:0203580004148b
:02035900040e90
:02035a00040895
:02035b0004019b
:02035c0003fba1
:02035d0003f5a6
:02035e0003efab
:02035f0003e9b0
:0203600003e3b5
:0203610003ddba
:0203620003d7bf
:0203630003d1c4
:0203640003cbc9
:0203650003c5ce
:0203660003bed4
:0203670003b8d9
:0203680003b2de
:0203690003ace3
:02036a0003a6e8
:02036b0003a0ed
:02036c00039af2
:02036d000394f7
:02036e00038dfd
:02036f00038702
:02037000038107
:02037100037b0c
:02037200037511
:02037300036f16
:0203740003691b
:02037500036320
:02037600035c26
:0203770003562b
:02037800035030
:02037900034a35
:02037a0003443a
:02037b00033e3f
:02037c00033844
:02037d0003314a
:02037e00032b4f
:02037f00032554
:02038000031f59
:0203810003195e
:02038200031363
:02038300030c69
:0203840003066e
:02038500030073
:0203860002fa79
:0203870002f47e
:0203880002ee83
:0203890002e789
:02038a0002e18e
:02038b0002db93
:02038c0002d598
:02038d0002cf9d
:02038e0002c8a3
:02038f0002c2a8
:0203900002bcad
:0203910002b6b2
:0203920002b0b7
:0203930002aabc
:0203940002a3c2
:02039500029dc7
:020396000297cc
:020397000291d1
:02039800028bd6
:020399000284dc
:02039a00027ee1
:02039b000278e6
:02039c000272eb
:02039d00026bf1
:02039e000265f6
:02039f00025ffb
:0203a000025900
:0203a100025305
:0203a200024c0b
:0203a300024610
:0203a400024015
:0203a500023a1a
:0203a60002341f
:0203a700022d25
:0203a80002272a
:0203a90002212f
:0203aa00021b34
:0203ab0002143a
:0203ac00020e3f
:0203ad00020844
:0203ae00020249
:0203af0001fc4f
:0203b00001f555
:0203b10001ef5a
:0203b20001e95f
:0203b30001e364
:0203b40001dc6a
:0203b50001d66f
:0203b60001d074
:0203b70001ca79
:0203b80001c37f
:0203b90001bd84
:0203ba0001b789
:0203bb0001b18e
:0203bc0001aa94
:0203bd0001a499
:0203be00019e9e
:0203bf000198a3
:0203c0000191a9
:0203c100018bae
:0203c2000185b3
:0203c300017fb8
:0203c4000178be
:0203c5000172c3
:0203c600016cc8
:0203c7000166cd
:0203c800015fd3
:0203c9000159d8
:0203ca000153dd
:0203cb00014de2
:0203cc000146e8
:0203cd000140ed
:0203ce00013af2
:0203cf000134f7
:0203d000012dfd
:0203d100012702
:0203d200012107
:0203d300011a0d
:0203d400011412
:0203d500010e17
:0203d60001081c
:0203d700010122
:0203d80000fb28
:0203d90000f52d
:0203da0000ef32
:0203db0000e838
:0203dc0000e23d
:0203dd0000dc42
:0203de0000d548
:0203df0000cf4d
:0203e00000c952
:0203e10000c357
:0203e20000bc5d
:0203e30000b662
:0203e40000b067
:0203e50000aa6c
:0203e60000a372
:0203e700009d77
:0203e80000977c
:0203e900009082
:0203ea00008a87
:0203eb0000848c
:0203ec00007e91
:0203ed00007797
:0203ee0000719c
:0203ef00006ba1
:0203f0000064a7
:0203f100005eac
:0203f2000058b1
:0203f3000052b6
:0203f400004bbc
:0203f5000045c1
:0203f600003fc6
:0203f7000039cb
:0203f8000032d1
:0203f900002cd6
:0203fa000026db
:0203fb00001fe1
:0203fc000019e6
:0203fd000013eb
:0203fe00000df0
:0203ff000006f6
:020400000000fa
:020401001ffae0
:020402001ff3e6
:020403001fedeb
:020404001fe7f0
:020405001fe1f5
:020406001fdafb
:020407001fd400
:020408001fce05
:020409001fc70b
:02040a001fc110
:02040b001fbb15
:02040c001fb51a
:02040d001fae20
:02040e001fa825
:02040f001fa22a
:020410001f9c2f
:020411001f9535
:020412001f8f3a
:020413001f893f
:020414001f8245
:020415001f7c4a
:020416001f764f
:020417001f7054
:020418001f695a
:020419001f635f
:02041a001f5d64
:02041b001f566a
:02041c001f506f
:02041d001f4a74
:02041e001f4479
:02041f001f3d7f
:020420001f3784
:020421001f3189
:020422001f2b8e
:020423001f2494
:020424001f1e99
:020425001f189e
:020426001f11a4
:020427001f0ba9
:020428001f05ae
:020429001effb4
:02042a001ef8ba
:02042b001ef2bf
:02042c001eecc4
:02042d001ee6c9
:02042e001edfcf
:02042f001ed9d4
:020430001ed3d9
:020431001eccdf
:020432001ec6e4
:020433001ec0e9
:020434001ebaee
:020435001eb3f4
:020436001eadf9
:020437001ea7fe
:020438001ea103
:020439001e9a09
:02043a001e940e
:02043b001e8e13
:02043c001e8818
:02043d001e811e
:02043e001e7b23
:02043f001e7528
:020440001e6f2d
:020441001e6833
:020442001e6238
:020443001e5c3d
:020444001e5642
:020445001e4f48
:020446001e494d
:020447001e4352
:020448001e3d57
:020449001e365d
:02044a001e3062
:02044b001e2a67
:02044c001e246c
:02044d001e1d72
:02044e001e1777
:02044f001e117c
:020450001e0b81
:020451001e0487
:020452001dfe8d
:020453001df892
:020454001df297
:020455001dec9c
:020456001de5a2
:020457001ddfa7
:020458001dd9ac
:020459001dd3b1
:02045a001dccb7
:02045b001dc6bc
:02045c001dc0c1
:02045d001dbac6
:02045e001db4cb
:02045f001dadd1
:020460001da7d6
:020461001da1db
:020462001d9be0
:020463001d95e5
:020464001d8eeb
:020465001d88f0
:020466001d82f5
:020467001d7cfa
:020468001d7500
:020469001d6f05
:02046a001d690a
:02046b001d630f
:02046c001d5d14
:02046d001d561a
:02046e001d501f
:02046f001d4a24
:020470001d4429
:020471001d3e2e
:020472001d3833
:020473001d3139
:020474001d2b3e
:020475001d2543
:020476001d1f48
:020477001d194d
:020478001d1253
:020479001d0c58
:02047a001d065d
:02047b001d0062
:02047c001cfa68
:02047d001cf46d
:02047e001ced73
:02047f001ce778
:020480001ce17d
:020481001cdb82
:020482001cd587
:020483001ccf8c
:020484001cc892
:020485001cc297
:020486001cbc9c
:020487001cb6a1
:020488001cb0a6
:020489001caaab
:02048a001ca4b0
:02048b001c9db6
:02048c001c97bb
:02048d001c91c0
:02048e001c8bc5
:02048f001c85ca
:020490001c7fcf
:020491001c79d4
:020492001c73d9
:020493001c6cdf
:020494001c66e4
:020495001c60e9
:020496001c5aee
:020497001c54f3
:020498001c4ef8
:020499001c48fd
:02049a001c4202
:02049b001c3b08
:02049c001c350d
:02049d001c2f12
:02049e001c2917
:02049f001c231c
:0204a0001c1d21
:0204a1001c1726
:0204a2001c112b
:0204a3001c0b30
:0204a4001c0535
:0204a5001bff3b
:0204a6001bf841
:0204a7001bf246
:0204a8001bec4b
:0204a9001be650
:0204aa001be055
:0204ab001bda5a
:0204ac001bd45f
:0204ad001bce64
:0204ae001bc869
:0204af001bc26e
:0204b0001bbc73
:0204b1001bb678
:0204b2001bb07d
:0204b3001baa82
:0204b4001ba487
:0204b5001b9e8c
:0204b6001b9891
:0204b7001b9197
:0204b8001b8b9c
:0204b9001b85a1
:0204ba001b7fa6
:0204bb001b79ab
:0204bc001b73b0
:0204bd001b6db5
:0204be001b67ba
:0204bf001b61bf
:0204c0001b5bc4
:0204c1001b55c9
:0204c2001b4fce
:0204c3001b49d3
:0204c4001b43d8
:0204c5001b3ddd
:0204c6001b37e2
:0204c7001b31e7
:0204c8001b2bec
:0204c9001b25f1
:0204ca001b1ff6
:0204cb001b19fb
:0204cc001b1300
:0204cd001b0d05
:0204ce001b070a
:0204cf001b010f
:0204d0001afb15
:0204d1001af619
:0204d2001af01e
:0204d3001aea23
:0204d4001ae428
:0204d5001ade2d
:0204d6001ad832
:0204d7001ad237
:0204d8001acc3c
:0204d9001ac641
:0204da001ac046
:0204db001aba4b
:0204dc001ab450
:0204dd001aae55
:0204de001aa85a
:0204df001aa25f
:0204e0001a9c64
:0204e1001a9768
:0204e2001a916d
:0204e3001a8b72
:0204e4001a8577
:0204e5001a7f7c
:0204e6001a7981
:0204e7001a7386
:0204e8001a6d8b
:0204e9001a6790
:0204ea001a6195
:0204eb001a5c99
:0204ec001a569e
:0204ed001a50a3
:0204ee001a4aa8
:0204ef001a44ad
:0204f0001a3eb2
:0204f1001a38b7
:0204f2001a33bb
:0204f3001a2dc0
:0204f4001a27c5
:0204f5001a21ca
:0204f6001a1bcf
:0204f7001a15d4
:0204f8001a0fd9
:0204f9001a0add
:0204fa001a04e2
:0204fb0019fee8
:0204fc0019f8ed
:0204fd0019f2f2
:0204fe0019edf6
:0204ff0019e7fb
:0205000019e1ff
:0205010019db04
:0205020019d509
:0205030019d00d
:0205040019ca12
:0205050019c417
:0205060019be1c
:0205070019b821
:0205080019b325
:0205090019ad2a
:02050a0019a72f
:02050b0019a134
:02050c00199c38
:02050d0019963d
:02050e00199042
:02050f00198a47
:0205100019854b
:02051100197f50
:02051200197955
:0205130019735a
:02051400196e5e
:02051500196863
:02051600196268
:02051700195c6d
:02051800195771
:02051900195176
:02051a00194b7b
:02051b0019467f
:02051c00194084
:02051d00193a89
:02051e0019358d
:02051f00192f92
:02052000192997
:0205210019239c
:02052200191ea0
:020523001918a5
:020524001912aa
:02052500190dae
:020526001907b3
:020527001902b7
:0205280018fcbd
:0205290018f6c2
:02052a0018f1c6
:02052b0018ebcb
:02052c0018e5d0
:02052d0018e0d4
:02052e0018dad9
:02052f0018d4de
:0205300018cfe2
:0205310018c9e7
:0205320018c4eb
:0205330018bef0
:0205340018b8f5
:0205350018b3f9
:0205360018adfe
:0205370018a802
:0205380018a207
:02053900189d0b
:02053a00189710
:02053b00189115
:02053c00188c19
:02053d0018861e
:02053e00188122
:02053f00187b27
:0205400018762b
:02054100187030
:02054200186b34
:02054300186539
:0205440018603d
:02054500185a42
:02054600185447
:02054700184f4b
:02054800184950
:02054900184454
:02054a00183e59
:02054b0018395d
:02054c00183362
:02054d00182e66
:02054e0018296a
:02054f0018236f
:02055000181e73
:02055100181878
:0205520018137c
:02055300180d81
:02055400180885
:0205550018028a
:0205560017fd8f
:0205570017f794
:0205580017f298
:0205590017ed9c
:02055a0017e7a1
:02055b0017e2a5
:02055c0017dcaa
:02055d0017d7ae
:02055e0017d2b2
:02055f0017ccb7
:0205600017c7bb
:0205610017c1c0
:0205620017bcc4
:0205630017b7c8
:0205640017b1cd
:0205650017acd1
:0205660017a7d5
:0205670017a1da
:02056800179cde
:020569001796e3
:02056a001791e7
:02056b00178ceb
:02056c001786f0
:02056d001781f4
:02056e00177cf8
:02056f001776fd
:02057000177101
:02057100176c05
:02057200176709
:0205730017610e
:02057400175c12
:02057500175716
:0205760017511b
:02057700174c1f
:02057800174723
:02057900174227
:02057a00173c2c
:02057b00173730
:02057c00173234
:02057d00172d38
:02057e0017273d
:02057f00172241
:02058000171d45
:02058100171849
:0205820017134d
:02058300170d52
:02058400170856
:0205850017035a
:0205860016fe5f
:0205870016f963
:0205880016f368
:0205890016ee6c
:02058a0016e970
:02058b0016e474
:02058c0016df78
:02058d0016d97d
:02058e0016d481
:02058f0016cf85
:0205900016ca89
:0205910016c58d
:0205920016c091
:0205930016bb95
:0205940016b699
:0205950016b09e
:0205960016aba2
:0205970016a6a6
:0205980016a1aa
:02059900169cae
:02059a001697b2
:02059b001692b6
:02059c00168dba
:02059d001688be
:02059e001683c2
:02059f00167ec6
:0205a0001679ca
:0205a1001674ce
:0205a200166fd2
:0205a300166ad6
:0205a4001664db
:0205a500165fdf
:0205a600165ae3
:0205a7001655e7
:0205a8001650eb
:0205a900164bef
:0205aa001646f3
:0205ab001641f7
:0205ac00163cfb
:0205ad001638fe
:0205ae00163302
:0205af00162e06
:0205b00016290a
:0205b10016240e
:0205b200161f12
:0205b300161a16
:0205b40016151a
:0205b50016101e
:0205b600160b22
:0205b700160626
:0205b80016012a
:0205b90015fc2f
:0205ba0015f733
:0205bb0015f336
:0205bc0015ee3a
:0205bd0015e93e
:0205be0015e442
:0205bf0015df46
:0205c00015da4a
:0205c10015d54e
:0205c20015d052
:0205c30015cc55
:0205c40015c759
:0205c50015c25d
:0205c60015bd61
:0205c70015b865
:0205c80015b468
:0205c90015af6c
:0205ca0015aa70
:0205cb0015a574
:0205cc0015a078
:0205cd00159c7b
:0205ce0015977f
:0205cf00159283
:0205d000158d87
:0205d10015898a
:0205d20015848e
:0205d300157f92
:0205d400157a96
:0205d500157699
:0205d60015719d
:0205d700156ca1
:0205d8001567a5
:0205d9001563a8
:0205da00155eac
:0205db001559b0
:0205dc001555b3
:0205dd001550b7
:0205de00154bbb
:0205df001547be
:0205e0001542c2
:0205e100153dc6
:0205e2001539c9
:0205e3001534cd
:0205e400152fd1
:0205e500152bd4
:0205e6001526d8
:0205e7001522db
:0205e800151ddf
:0205e9001518e3
:0205ea001514e6
:0205eb00150fea
:0205ec00150bed
:0205ed001506f1
:0205ee001501f5
:0205ef0014fdf9
:0205f00014f8fd
:0205f10014f400
:0205f20014ef04
:0205f30014eb07
:0205f40014e60b
:0205f50014e20e
:0205f60014dd12
:0205f70014d915
:0205f80014d419
:0205f90014d01c
:0205fa0014cb20
:0205fb0014c723
:0205fc0014c227
:0205fd0014be2a
:0205fe0014b92e
:0205ff0014b531
:0206000014b034
:0206010014ac37
:0206020014a83a
:0206030014a33e
:02060400149f41
:02060500149a45
:02060600149648
:0206070014914c
:02060800148d4f
:02060900148952
:02060a00148456
:02060b00148059
:02060c00147c5c
:02060d00147760
:02060e00147363
:02060f00146f66
:02061000146a6a
:0206110014666d
:02061200146270
:02061300145d74
:02061400145977
:0206150014557a
:0206160014507e
:02061700144c81
:02061800144884
:02061900144487
:02061a00143f8b
:02061b00143b8e
:02061c00143791
:02061d00143295
:02061e00142e98
:02061f00142a9b
:0206200014269e
:020621001422a1
:02062200141da5
:020623001419a8
:020624001415ab
:020625001411ae
:02062600140db1
:020627001408b5
:020628001404b8
:020629001400bb
:02062a0013fcbf
:02062b0013f8c2
:02062c0013f4c5
:02062d0013f0c8
:02062e0013ebcc
:02062f0013e7cf
:0206300013e3d2
:0206310013dfd5
:0206320013dbd8
:0206330013d7db
:0206340013d3de
:0206350013cfe1
:0206360013cbe4
:0206370013c7e7
:0206380013c3ea
:0206390013bfed
:02063a0013bbf0
:02063b0013b7f3
:02063c0013b3f6
:02063d0013aff9
:02063e0013abfc
:02063f0013a7ff
:0206400013a302
:02064100139f05
:02064200139b08
:0206430013970b
:0206440013930e
:02064500138f11
:02064600138b14
:02064700138717
:0206480013831a
:02064900137f1d
:02064a00137b20
:02064b00137723
:02064c00137326
:02064d00136f29
:02064e00136b2c
:02064f0013682e
:02065000136431
:02065100136034
:02065200135c37
:0206530013583a
:0206540013543d
:02065500135040
:02065600134d42
:02065700134945
:02065800134548
:0206590013414b
:02065a00133d4e
:02065b00133a50
:02065c00133653
:02065d00133256
:02065e00132e59
:02065f00132b5b
:0206600013275e
:02066100132361
:02066200131f64
:02066300131c66
:02066400131869
:0206650013146c
:0206660013116e
:02066700130d71
:02066800130974
:02066900130676
:02066a00130279
:02066b0012fe7d
:02066c0012fb7f
:02066d0012f782
:02066e0012f385
:02066f0012f087
:0206700012ec8a
:0206710012e88d
:0206720012e58f
:0206730012e192
:0206740012de94
:0206750012da97
:0206760012d69a
:0206770012d39c
:0206780012cf9f
:0206790012cca1
:02067a0012c8a4
:02067b0012c5a6
:02067c0012c1a9
:02067d0012beab
:02067e0012baae
:02067f0012b7b0
:0206800012b3b3
:0206810012b0b5
:0206820012acb8
:0206830012a9ba
:0206840012a5bd
:0206850012a2bf
:02068600129ec2
:02068700129bc4
:020688001297c7
:020689001294c9
:02068a001291cb
:02068b00128dce
:02068c00128ad0
:02068d001286d3
:02068e001283d5
:02068f001280d7
:02069000127cda
:020691001279dc
:020692001276de
:020693001272e1
:02069400126fe3
:02069500126ce5
:020696001268e8
:020697001265ea
:020698001262ec
:02069900125eef
:02069a00125bf1
:02069b001258f3
:02069c001255f5
:02069d001251f8
:02069e00124efa
:02069f00124bfc
:0206a0001248fe
:0206a100124401
:0206a200124103
:0206a300123e05
:0206a400123b07
:0206a500123809
:0206a60012340c
:0206a70012310e
:0206a800122e10
:0206a900122b12
:0206aa00122814
:0206ab00122516
:0206ac00122119
:0206ad00121e1b
:0206ae00121b1d
:0206af0012181f
:0206b000121521
:0206b100121223
:0206b200120f25
:0206b300120c27
:0206b400120929
:0206b50012062b
:0206b60012032d
:0206b70012002f
:0206b80011fc33
:0206b90011f935
:0206ba0011f637
:0206bb0011f339
:0206bc0011f03b
:0206bd0011ed3d
:0206be0011ea3f
:0206bf0011e741
:0206c00011e542
:0206c10011e244
:0206c20011df46
:0206c30011dc48
:0206c40011d94a
:0206c50011d64c
:0206c60011d34e
:0206c70011d050
:0206c80011cd52
:0206c90011ca54
:0206ca0011c756
:0206cb0011c458
:0206cc0011c259
:0206cd0011bf5b
:0206ce0011bc5d
:0206cf0011b95f
:0206d00011b661
:0206d10011b363
:0206d20011b164
:0206d30011ae66
:0206d40011ab68
:0206d50011a86a
:0206d60011a56c
:0206d70011a36d
:0206d80011a06f
:0206d900119d71
:0206da00119a73
:0206db00119874
:0206dc00119576
:0206dd00119278
:0206de00119079
:0206df00118d7b
:0206e000118a7d
:0206e10011877f
:0206e200118580
:0206e300118282
:0206e400117f84
:0206e500117d85
:0206e600117a87
:0206e700117888
:0206e80011758a
:0206e90011728c
:0206ea0011708d
:0206eb00116d8f
:0206ec00116b90
:0206ed00116892
:0206ee00116594
:0206ef00116395
:0206f000116097
:0206f100115e98
:0206f200115b9a
:0206f30011599b
:0206f40011569d
:0206f50011549e
:0206f6001151a0
:0206f700114fa1
:0206f800114ca3
:0206f900114aa4
:0206fa001147a6
:0206fb001145a7
:0206fc001142a9
:0206fd001140aa
:0206fe00113eab
:0206ff00113bad
:020700001139ad
:020701001136af
:020702001134b0
:020703001132b1
:02070400112fb3
:02070500112db4
:02070600112ab6
:020707001128b7
:020708001126b8
:020709001123ba
:02070a001121bb
:02070b00111fbc
:02070c00111dbd
:02070d00111abf
:02070e001118c0
:02070f001116c1
:020710001113c3
:020711001111c4
:02071200110fc5
:02071300110dc6
:02071400110ac8
:020715001108c9
:020716001106ca
:020717001104cb
:020718001102cc
:0207190010ffcf
:02071a0010fdd0
:02071b0010fbd1
:02071c0010f9d2
:02071d0010f7d3
:02071e0010f5d4
:02071f0010f2d6
:0207200010f0d7
:0207210010eed8
:0207220010ecd9
:0207230010eada
:0207240010e8db
:0207250010e6dc
:0207260010e4dd
:0207270010e2de
:0207280010e0df
:0207290010dee0
:02072a0010dce1
:02072b0010dae2
:02072c0010d8e3
:02072d0010d6e4
:02072e0010d4e5
:02072f0010d2e6
:0207300010d0e7
:0207310010cee8
:0207320010cce9
:0207330010caea
:0207340010c8eb
:0207350010c6ec
:0207360010c4ed
:0207370010c2ee
:0207380010c0ef
:0207390010bef0
:02073a0010bcf1
:02073b0010bbf1
:02073c0010b9f2
:02073d0010b7f3
:02073e0010b5f4
:02073f0010b3f5
:0207400010b1f6
:0207410010b0f6
:0207420010aef7
:0207430010acf8
:0207440010aaf9
:0207450010a8fa
:0207460010a7fa
:0207470010a5fb
:0207480010a3fc
:0207490010a1fd
:02074a0010a0fd
:02074b00109efe
:02074c00109cff
:02074d00109a00
:02074e00109900
:02074f00109701
:02075000109502
:02075100109402
:02075200109203
:02075300109004
:02075400108f04
:02075500108d05
:02075600108b06
:02075700108a06
:02075800108807
:02075900108707
:02075a00108508
:02075b00108309
:02075c00108209
:02075d0010800a
:02075e00107f0a
:02075f00107d0b
:02076000107c0b
:02076100107a0c
:0207620010790c
:0207630010770d
:0207640010760d
:0207650010740e
:0207660010730e
:0207670010710f
:0207680010700f
:02076900106e10
:02076a00106d10
:02076b00106b11
:02076c00106a11
:02076d00106911
:02076e00106712
:02076f00106612
:02077000106413
:02077100106313
:02077200106213
:02077300106014
:02077400105f14
:02077500105e14
:02077600105c15
:02077700105b15
:02077800105a15
:02077900105816
:02077a00105716
:02077b00105616
:02077c00105516
:02077d00105317
:02077e00105217
:02077f00105117
:02078000105017
:02078100104e18
:02078200104d18
:02078300104c18
:02078400104b18
:02078500104a18
:02078600104918
:02078700104719
:02078800104619
:02078900104519
:02078a00104419
:02078b00104319
:02078c00104219
:02078d00104119
:02078e00103f1a
:02078f00103e1a
:02079000103d1a
:02079100103c1a
:02079200103b1a
:02079300103a1a
:0207940010391a
:0207950010381a
:0207960010371a
:0207970010361a
:0207980010351a
:0207990010341a
:02079a0010331a
:02079b0010321a
:02079c0010311a
:02079d0010301a
:02079e00102f1a
:02079f00102e1a
:0207a000102d1a
:0207a100102c1a
:0207a200102b1a
:0207a300102b19
:0207a400102a19
:0207a500102919
:0207a600102819
:0207a700102719
:0207a800102619
:0207a900102519
:0207aa00102518
:0207ab00102418
:0207ac00102318
:0207ad00102218
:0207ae00102118
:0207af00102117
:0207b000102017
:0207b100101f17
:0207b200101e17
:0207b300101e16
:0207b400101d16
:0207b500101c16
:0207b600101b16
:0207b700101b15
:0207b800101a15
:0207b900101915
:0207ba00101914
:0207bb00101814
:0207bc00101714
:0207bd00101713
:0207be00101613
:0207bf00101513
:0207c000101512
:0207c100101412
:0207c200101411
:0207c300101311
:0207c400101211
:0207c500101210
:0207c600101110
:0207c70010110f
:0207c80010100f
:0207c90010100e
:0207ca00100f0e
:0207cb00100f0d
:0207cc00100e0d
:0207cd00100e0c
:0207ce00100d0c
:0207cf00100d0b
:0207d000100c0b
:0207d100100c0a
:0207d200100b0a
:0207d300100b09
:0207d400100a09
:0207d500100a08
:0207d600100908
:0207d700100907
:0207d800100906
:0207d900100806
:0207da00100805
:0207db00100804
:0207dc00100704
:0207dd00100703
:0207de00100702
:0207df00100602
:0207e000100601
:0207e100100600
:0207e200100500
:0207e3001005ff
:0207e4001005fe
:0207e5001005fd
:0207e6001004fd
:0207e7001004fc
:0207e8001004fb
:0207e9001004fa
:0207ea001003fa
:0207eb001003f9
:0207ec001003f8
:0207ed001003f7
:0207ee001003f6
:0207ef001002f6
:0207f0001002f5
:0207f1001002f4
:0207f2001002f3
:0207f3001002f2
:0207f4001002f1
:0207f5001002f0
:0207f6001001f0
:0207f7001001ef
:0207f8001001ee
:0207f9001001ed
:0207fa001001ec
:0207fb001001eb
:0207fc001001ea
:0207fd001001e9
:0207fe001001e8
:0207ff001001e7
:020800001001e5
:020801001001e4
:020802001001e3
:020803001001e2
:020804001001e1
:020805001001e0
:020806001001df
:020807001001de
:020808001001dd
:020809001001dc
:02080a001001db
:02080b001002d9
:02080c001002d8
:02080d001002d7
:02080e001002d6
:02080f001002d5
:020810001002d4
:020811001002d3
:020812001003d1
:020813001003d0
:020814001003cf
:020815001003ce
:020816001003cd
:020817001004cb
:020818001004ca
:020819001004c9
:02081a001004c8
:02081b001005c6
:02081c001005c5
:02081d001005c4
:02081e001005c3
:02081f001006c1
:020820001006c0
:020821001006bf
:020822001007bd
:020823001007bc
:020824001007bb
:020825001008b9
:020826001008b8
:020827001008b7
:020828001009b5
:020829001009b4
:02082a001009b3
:02082b00100ab1
:02082c00100ab0
:02082d00100bae
:02082e00100bad
:02082f00100cab
:02083000100caa
:02083100100da8
:02083200100da7
:02083300100ea5
:02083400100ea4
:02083500100fa2
:02083600100fa1
:0208370010109f
:0208380010109e
:0208390010119c
:02083a0010119b
:02083b00101299
:02083c00101298
:02083d00101396
:02083e00101494
:02083f00101493
:02084000101591
:02084100101590
:0208420010168e
:0208430010178c
:0208440010178b
:02084500101889
:02084600101987
:02084700101986
:02084800101a84
:02084900101b82
:02084a00101b81
:02084b00101c7f
:02084c00101d7d
:02084d00101e7b
:02084e00101e7a
:02084f00101f78
:02085000102076
:02085100102174
:02085200102173
:02085300102271
:0208540010236f
:0208550010246d
:0208560010256b
:0208570010256a
:02085800102668
:02085900102766
:02085a00102864
:02085b00102962
:02085c00102a60
:02085d00102b5e
:02085e00102b5d
:02085f00102c5b
:02086000102d59
:02086100102e57
:02086200102f55
:02086300103053
:02086400103151
:0208650010324f
:0208660010334d
:0208670010344b
:02086800103549
:02086900103647
:02086a00103745
:02086b00103843
:02086c00103941
:02086d00103a3f
:02086e00103b3d
:02086f00103c3b
:02087000103d39
:02087100103e37
:02087200103f35
:02087300104132
:02087400104230
:0208750010432e
:0208760010442c
:0208770010452a
:02087800104628
:02087900104726
:02087a00104923
:02087b00104a21
:02087c00104b1f
:02087d00104c1d
:02087e00104d1b
:02087f00104e19
:02088000105016
:02088100105114
:02088200105212
:02088300105310
:0208840010550d
:0208850010560b
:02088600105709
:02088700105807
:02088800105a04
:02088900105b02
:02088a00105c00
:02088b00105efd
:02088c00105ffb
:02088d001060f9
:02088e001062f6
:02088f001063f4
:020890001064f2
:020891001066ef
:020892001067ed
:020893001069ea
:02089400106ae8
:02089500106be6
:02089600106de3
:02089700106ee1
:020898001070de
:020899001071dc
:02089a001073d9
:02089b001074d7
:02089c001076d4
:02089d001077d2
:02089e001079cf
:02089f00107acd
:0208a000107cca
:0208a100107dc8
:0208a200107fc5
:0208a3001080c3
:0208a4001082c0
:0208a5001083be
:0208a6001085bb
:0208a7001087b8
:0208a8001088b6
:0208a900108ab3
:0208aa00108bb1
:0208ab00108dae
:0208ac00108fab
:0208ad001090a9
:0208ae001092a6
:0208af001094a3
:0208b0001095a1
:0208b10010979e
:0208b20010999b
:0208b300109a99
:0208b400109c96
:0208b500109e93
:0208b60010a090
:0208b70010a18e
:0208b80010a38b
:0208b90010a588
:0208ba0010a785
:0208bb0010a883
:0208bc0010aa80
:0208bd0010ac7d
:0208be0010ae7a
:0208bf0010b077
:0208c00010b175
:0208c10010b372
:0208c20010b56f
:0208c30010b76c
:0208c40010b969
:0208c50010bb66
:0208c60010bc64
:0208c70010be61
:0208c80010c05e
:0208c90010c25b
:0208ca0010c458
:0208cb0010c655
:0208cc0010c852
:0208cd0010ca4f
:0208ce0010cc4c
:0208cf0010ce49
:0208d00010d046
:0208d10010d243
:0208d20010d440
:0208d30010d63d
:0208d40010d83a
:0208d50010da37
:0208d60010dc34
:0208d70010de31
:0208d80010e02e
:0208d90010e22b
:0208da0010e428
:0208db0010e625
:0208dc0010e822
:0208dd0010ea1f
:0208de0010ec1c
:0208df0010ee19
:0208e00010f016
:0208e10010f213
:0208e20010f50f
:0208e30010f70c
:0208e40010f909
:0208e50010fb06
:0208e60010fd03
:0208e70010ff00
:0208e8001102fb
:0208e9001104f8
:0208ea001106f5
:0208eb001108f2
:0208ec00110aef
:0208ed00110deb
:0208ee00110fe8
:0208ef001111e5
:0208f0001113e2
:0208f1001116de
:0208f2001118db
:0208f300111ad8
:0208f400111dd4
:0208f500111fd1
:0208f6001121ce
:0208f7001123cb
:0208f8001126c7
:0208f9001128c4
:0208fa00112ac1
:0208fb00112dbd
:0208fc00112fba
:0208fd001132b6
:0208fe001134b3
:0208ff001136b0
:020900001139ab
:02090100113ba8
:02090200113ea4
:020903001140a1
:0209040011429e
:0209050011459a
:02090600114797
:02090700114a93
:02090800114c90
:02090900114f8c
:02090a00115189
:02090b00115485
:02090c00115682
:02090d0011597e
:02090e00115b7b
:02090f00115e77
:02091000116074
:02091100116370
:0209120011656d
:02091300116869
:02091400116b65
:02091500116d62
:0209160011705e
:0209170011725b
:02091800117557
:02091900117853
:02091a00117a50
:02091b00117d4c
:02091c00117f49
:02091d00118245
:02091e00118541
:02091f0011873e
:02092000118a3a
:02092100118d36
:02092200119032
:0209230011922f
:0209240011952b
:02092500119827
:02092600119a24
:02092700119d20
:0209280011a01c
:0209290011a318
:02092a0011a515
:02092b0011a811
:02092c0011ab0d
:02092d0011ae09
:02092e0011b105
:02092f0011b302
:0209300011b6fe
:0209310011b9fa
:0209320011bcf6
:0209330011bff2
:0209340011c2ee
:0209350011c4eb
:0209360011c7e7
:0209370011cae3
:0209380011cddf
:0209390011d0db
:02093a0011d3d7
:02093b0011d6d3
:02093c0011d9cf
:02093d0011dccb
:02093e0011dfc7
:02093f0011e2c3
:0209400011e5bf
:0209410011e7bc
:0209420011eab8
:0209430011edb4
:0209440011f0b0
:0209450011f3ac
:0209460011f6a8
:0209470011f9a4
:0209480011fca0
:0209490012009a
:02094a00120396
:02094b00120692
:02094c0012098e
:02094d00120c8a
:02094e00120f86
:02094f00121282
:0209500012157e
:0209510012187a
:02095200121b76
:02095300121e72
:0209540012216e
:02095500122569
:02095600122865
:02095700122b61
:02095800122e5d
:02095900123159
:02095a00123455
:02095b00123850
:02095c00123b4c
:02095d00123e48
:02095e00124144
:02095f00124440
:0209600012483b
:02096100124b37
:02096200124e33
:0209630012512f
:0209640012552a
:02096500125826
:02096600125b22
:02096700125e1e
:02096800126219
:02096900126515
:02096a00126811
:02096b00126c0c
:02096c00126f08
:02096d00127204
:02096e001276ff
:02096f001279fb
:02097000127cf7
:020971001280f2
:020972001283ee
:020973001286ea
:02097400128ae5
:02097500128de1
:020976001291dc
:020977001294d8
:020978001297d4
:02097900129bcf
:02097a00129ecb
:02097b0012a2c6
:02097c0012a5c2
:02097d0012a9bd
:02097e0012acb9
:02097f0012b0b4
:0209800012b3b0
:0209810012b7ab
:0209820012baa7
:0209830012bea2
:0209840012c19e
:0209850012c599
:0209860012c895
:0209870012cc90
:0209880012cf8c
:0209890012d387
:02098a0012d683
:02098b0012da7e
:02098c0012de79
:02098d0012e175
:02098e0012e570
:02098f0012e86c
:0209900012ec67
:0209910012f062
:0209920012f35e
:0209930012f759
:0209940012fb54
:0209950012fe50
:0209960013024a
:02099700130645
:02099800130941
:02099900130d3c
:02099a00131137
:02099b00131433
:02099c0013182e
:02099d00131c29
:02099e00131f25
:02099f00132320
:0209a00013271b
:0209a100132b16
:0209a200132e12
:0209a30013320d
:0209a400133608
:0209a500133a03
:0209a600133dff
:0209a7001341fa
:0209a8001345f5
:0209a9001349f0
:0209aa00134deb
:0209ab001350e7
:0209ac001354e2
:0209ad001358dd
:0209ae00135cd8
:0209af001360d3
:0209b0001364ce
:0209b1001368c9
:0209b200136bc5
:0209b300136fc0
:0209b4001373bb
:0209b5001377b6
:0209b600137bb1
:0209b700137fac
:0209b8001383a7
:0209b9001387a2
:0209ba00138b9d
:0209bb00138f98
:0209bc00139393
:0209bd0013978e
:0209be00139b89
:0209bf00139f84
:0209c00013a37f
:0209c10013a77a
:0209c20013ab75
:0209c30013af70
:0209c40013b36b
:0209c50013b766
:0209c60013bb61
:0209c70013bf5c
:0209c80013c357
:0209c90013c752
:0209ca0013cb4d
:0209cb0013cf48
:0209cc0013d343
:0209cd0013d73e
:0209ce0013db39
:0209cf0013df34
:0209d00013e32f
:0209d10013e72a
:0209d20013eb25
:0209d30013f01f
:0209d40013f41a
:0209d50013f815
:0209d60013fc10
:0209d70014000a
:0209d800140405
:0209d900140800
:0209da00140dfa
:0209db001411f5
:0209dc001415f0
:0209dd001419eb
:0209de00141de6
:0209df001422e0
:0209e0001426db
:0209e100142ad6
:0209e200142ed1
:0209e3001432cc
:0209e4001437c6
:0209e500143bc1
:0209e600143fbc
:0209e7001444b6
:0209e8001448b1
:0209e900144cac
:0209ea001450a7
:0209eb001455a1
:0209ec0014599c
:0209ed00145d97
:0209ee00146291
:0209ef0014668c
:0209f000146a87
:0209f100146f81
:0209f20014737c
:0209f300147777
:0209f400147c71
:0209f50014806c
:0209f600148467
:0209f700148961
:0209f800148d5c
:0209f900149157
:0209fa00149651
:0209fb00149a4c
:0209fc00149f46
:0209fd0014a341
:0209fe0014a83b
:0209ff0014ac36
:020a000014b030
:020a010014b52a
:020a020014b925
:020a030014be1f
:020a040014c21a
:020a050014c714
:020a060014cb0f
:020a070014d009
:020a080014d404
:020a090014d9fe
:020a0a0014ddf9
:020a0b0014e2f3
:020a0c0014e6ee
:020a0d0014ebe8
:020a0e0014efe3
:020a0f0014f4dd
:020a100014f8d8
:020a110014fdd2
:020a12001501cc
:020a13001506c6
:020a1400150bc0
:020a1500150fbb
:020a16001514b5
:020a17001518b0
:020a1800151daa
:020a19001522a4
:020a1a0015269f
:020a1b00152b99
:020a1c00152f94
:020a1d0015348e
:020a1e00153988
:020a1f00153d83
:020a200015427d
:020a2100154777
:020a2200154b72
:020a230015506c
:020a2400155566
:020a2500155961
:020a2600155e5b
:020a2700156355
:020a2800156750
:020a2900156c4a
:020a2a00157144
:020a2b0015763e
:020a2c00157a39
:020a2d00157f33
:020a2e0015842d
:020a2f00158927
:020a3000158d22
:020a310015921c
:020a3200159716
:020a3300159c10
:020a340015a00b
:020a350015a505
:020a360015aaff
:020a370015aff9
:020a380015b4f3
:020a390015b8ee
:020a3a0015bde8
:020a3b0015c2e2
:020a3c0015c7dc
:020a3d0015ccd6
:020a3e0015d0d1
:020a3f0015d5cb
:020a400015dac5
:020a410015dfbf
:020a420015e4b9
:020a430015e9b3
:020a440015eead
:020a450015f3a7
:020a460015f7a2
:020a470015fc9c
:020a4800160195
:020a490016068f
:020a4a00160b89
:020a4b00161083
:020a4c0016157d
:020a4d00161a77
:020a4e00161f71
:020a4f0016246b
:020a5000162965
:020a5100162e5f
:020a5200163359
:020a5300163853
:020a5400163c4e
:020a5500164148
:020a5600164642
:020a5700164b3c
:020a5800165036
:020a5900165530
:020a5a00165a2a
:020a5b00165f24
:020a5c0016641e
:020a5d00166a17
:020a5e00166f11
:020a5f0016740b
:020a6000167905
:020a6100167eff
:020a62001683f9
:020a63001688f3
:020a6400168ded
:020a65001692e7
:020a66001697e1
:020a6700169cdb
:020a680016a1d5
:020a690016a6cf
:020a6a0016abc9
:020a6b0016b0c3
:020a6c0016b6bc
:020a6d0016bbb6
:020a6e0016c0b0
:020a6f0016c5aa
:020a700016caa4
:020a710016cf9e
:020a720016d498
:020a730016d992
:020a740016df8b
:020a750016e485
:020a760016e97f
:020a770016ee79
:020a780016f373
:020a790016f96c
:020a7a0016fe66
:020a7b0017035f
:020a7c00170859
:020a7d00170d53
:020a7e0017134c
:020a7f00171846
:020a8000171d40
:020a810017223a
:020a8200172734
:020a8300172d2d
:020a8400173227
:020a8500173721
:020a8600173c1b
:020a8700174214
:020a880017470e
:020a8900174c08
:020a8a00175102
:020a8b001757fb
:020a8c00175cf5
:020a8d001761ef
:020a8e001767e8
:020a8f00176ce2
:020a90001771dc
:020a91001776d6
:020a9200177ccf
:020a93001781c9
:020a94001786c3
:020a9500178cbc
:020a96001791b6
:020a97001796b0
:020a9800179ca9
:020a990017a1a3
:020a9a0017a79c
:020a9b0017ac96
:020a9c0017b190
:020a9d0017b789
:020a9e0017bc83
:020a9f0017c17d
:020aa00017c776
:020aa10017cc70
:020aa20017d269
:020aa30017d763
:020aa40017dc5d
:020aa50017e256
:020aa60017e750
:020aa70017ed49
:020aa80017f243
:020aa90017f73d
:020aaa0017fd36
:020aab0018022f
:020aac00180828
:020aad00180d22
:020aae0018131b
:020aaf00181815
:020ab000181e0e
:020ab100182308
:020ab200182901
:020ab300182efb
:020ab4001833f5
:020ab5001839ee
:020ab600183ee8
:020ab7001844e1
:020ab8001849db
:020ab900184fd4
:020aba001854ce
:020abb00185ac7
:020abc001860c0
:020abd001865ba
:020abe00186bb3
:020abf001870ad
:020ac0001876a6
:020ac100187ba0
:020ac200188199
:020ac300188693
:020ac400188c8c
:020ac500189186
:020ac60018977f
:020ac700189d78
:020ac80018a272
:020ac90018a86b
:020aca0018ad65
:020acb0018b35e
:020acc0018b858
:020acd0018be51
:020ace0018c44a
:020acf0018c944
:020ad00018cf3d
:020ad10018d437
:020ad20018da30
:020ad30018e029
:020ad40018e523
:020ad50018eb1c
:020ad60018f115
:020ad70018f60f
:020ad80018fc08
:020ad900190200
:020ada001907fa
:020adb00190df3
:020adc001912ed
:020add001918e6
:020ade00191edf
:020adf001923d9
:020ae0001929d2
:020ae100192fcb
:020ae2001935c4
:020ae300193abe
:020ae4001940b7
:020ae5001946b0
:020ae600194baa
:020ae7001951a3
:020ae80019579c
:020ae900195c96
:020aea0019628f
:020aeb00196888
:020aec00196e81
:020aed0019737b
:020aee00197974
:020aef00197f6d
:020af000198566
:020af100198a60
:020af200199059
:020af300199652
:020af400199c4b
:020af50019a145
:020af60019a73e
:020af70019ad37
:020af80019b330
:020af90019b82a
:020afa0019be23
:020afb0019c41c
:020afc0019ca15
:020afd0019d00e
:020afe0019d508
:020aff0019db01
:020b000019e1f9
:020b010019e7f2
:020b020019edeb
:020b030019f2e5
:020b040019f8de
:020b050019fed7
:020b06001a04cf
:020b07001a0ac8
:020b08001a0fc2
:020b09001a15bb
:020b0a001a1bb4
:020b0b001a21ad
:020b0c001a27a6
:020b0d001a2d9f
:020b0e001a3398
:020b0f001a3892
:020b10001a3e8b
:020b11001a4484
:020b12001a4a7d
:020b13001a5076
:020b14001a566f
:020b15001a5c68
:020b16001a6162
:020b17001a675b
:020b18001a6d54
:020b19001a734d
:020b1a001a7946
:020b1b001a7f3f
:020b1c001a8538
:020b1d001a8b31
:020b1e001a912a
:020b1f001a9723
:020b20001a9c1d
:020b21001aa216
:020b22001aa80f
:020b23001aae08
:020b24001ab401
:020b25001abafa
:020b26001ac0f3
:020b27001ac6ec
:020b28001acce5
:020b29001ad2de
:020b2a001ad8d7
:020b2b001aded0
:020b2c001ae4c9
:020b2d001aeac2
:020b2e001af0bb
:020b2f001af6b4
:020b30001afbae
:020b31001b01a6
:020b32001b079f
:020b33001b0d98
:020b34001b1391
:020b35001b198a
:020b36001b1f83
:020b37001b257c
:020b38001b2b75
:020b39001b316e
:020b3a001b3767
:020b3b001b3d60
:020b3c001b4359
:020b3d001b4952
:020b3e001b4f4b
:020b3f001b5544
:020b40001b5b3d
:020b41001b6136
:020b42001b672f
:020b43001b6d28
:020b44001b7321
:020b45001b791a
:020b46001b7f13
:020b47001b850c
:020b48001b8b05
:020b49001b91fe
:020b4a001b98f6
:020b4b001b9eef
:020b4c001ba4e8
:020b4d001baae1
:020b4e001bb0da
:020b4f001bb6d3
:020b50001bbccc
:020b51001bc2c5
:020b52001bc8be
:020b53001bceb7
:020b54001bd4b0
:020b55001bdaa9
:020b56001be0a2
:020b57001be69b
:020b58001bec94
:020b59001bf28d
:020b5a001bf886
:020b5b001bff7e
:020b5c001c0576
:020b5d001c0b6f
:020b5e001c1168
:020b5f001c1761
:020b60001c1d5a
:020b61001c2353
:020b62001c294c
:020b63001c2f45
:020b64001c353e
:020b65001c3b37
:020b66001c422f
:020b67001c4828
:020b68001c4e21
:020b69001c541a
:020b6a001c5a13
:020b6b001c600c
:020b6c001c6605
:020b6d001c6cfe
:020b6e001c73f6
:020b6f001c79ef
:020b70001c7fe8
:020b71001c85e1
:020b72001c8bda
:020b73001c91d3
:020b74001c97cc
:020b75001c9dc5
:020b76001ca4bd
:020b77001caab6
:020b78001cb0af
:020b79001cb6a8
:020b7a001cbca1
:020b7b001cc29a
:020b7c001cc893
:020b7d001ccf8b
:020b7e001cd584
:020b7f001cdb7d
:020b80001ce176
:020b81001ce76f
:020b82001ced68
:020b83001cf460
:020b84001cfa59
:020b85001d0051
:020b86001d064a
:020b87001d0c43
:020b88001d123c
:020b89001d1934
:020b8a001d1f2d
:020b8b001d2526
:020b8c001d2b1f
:020b8d001d3118
:020b8e001d3810
:020b8f001d3e09
:020b90001d4402
:020b91001d4afb
:020b92001d50f4
:020b93001d56ed
:020b94001d5de5
:020b95001d63de
:020b96001d69d7
:020b97001d6fd0
:020b98001d75c9
:020b99001d7cc1
:020b9a001d82ba
:020b9b001d88b3
:020b9c001d8eac
:020b9d001d95a4
:020b9e001d9b9d
:020b9f001da196
:020ba0001da78f
:020ba1001dad88
:020ba2001db480
:020ba3001dba79
:020ba4001dc072
:020ba5001dc66b
:020ba6001dcc64
:020ba7001dd35c
:020ba8001dd955
:020ba9001ddf4e
:020baa001de547
:020bab001dec3f
:020bac001df238
:020bad001df831
:020bae001dfe2a
:020baf001e0422
:020bb0001e0b1a
:020bb1001e1113
:020bb2001e170c
:020bb3001e1d05
:020bb4001e24fd
:020bb5001e2af6
:020bb6001e30ef
:020bb7001e36e8
:020bb8001e3de0
:020bb9001e43d9
:020bba001e49d2
:020bbb001e4fcb
:020bbc001e56c3
:020bbd001e5cbc
:020bbe001e62b5
:020bbf001e68ae
:020bc0001e6fa6
:020bc1001e759f
:020bc2001e7b98
:020bc3001e8191
:020bc4001e8889
:020bc5001e8e82
:020bc6001e947b
:020bc7001e9a74
:020bc8001ea16c
:020bc9001ea765
:020bca001ead5e
:020bcb001eb357
:020bcc001eba4f
:020bcd001ec048
:020bce001ec641
:020bcf001ecc3a
:020bd0001ed332
:020bd1001ed92b
:020bd2001edf24
:020bd3001ee61c
:020bd4001eec15
:020bd5001ef20e
:020bd6001ef807
:020bd7001effff
:020bd8001f05f7
:020bd9001f0bf0
:020bda001f11e9
:020bdb001f18e1
:020bdc001f1eda
:020bdd001f24d3
:020bde001f2bcb
:020bdf001f31c4
:020be0001f37bd
:020be1001f3db6
:020be2001f44ae
:020be3001f4aa7
:020be4001f50a0
:020be5001f5699
:020be6001f5d91
:020be7001f638a
:020be8001f6983
:020be9001f707b
:020bea001f7674
:020beb001f7c6d
:020bec001f8266
:020bed001f895e
:020bee001f8f57
:020bef001f9550
:020bf0001f9c48
:020bf1001fa241
:020bf2001fa83a
:020bf3001fae33
:020bf4001fb52b
:020bf5001fbb24
:020bf6001fc11d
:020bf7001fc716
:020bf8001fce0e
:020bf9001fd407
:020bfa001fda00
:020bfb001fe1f8
:020bfc001fe7f1
:020bfd001fedea
:020bfe001ff3e3
:020bff001ffadb
:020c00000000f2
:020c01000006eb
:020c0200000de3
:020c03000013dc
:020c04000019d5
:020c0500001fce
:020c06000026c6
:020c0700002cbf
:020c08000032b8
:020c09000039b0
:020c0a00003fa9
:020c0b000045a2
:020c0c00004b9b
:020c0d00005293
:020c0e0000588c
:020c0f00005e85
:020c100000647e
:020c1100006b76
:020c120000716f
:020c1300007768
:020c1400007e60
:020c1500008459
:020c1600008a52
:020c170000904b
:020c1800009743
:020c1900009d3c
:020c1a0000a335
:020c1b0000aa2d
:020c1c0000b026
:020c1d0000b61f
:020c1e0000bc18
:020c1f0000c310
:020c200000c909
:020c210000cf02
:020c220000d5fb
:020c230000dcf3
:020c240000e2ec
:020c250000e8e5
:020c260000efdd
:020c270000f5d6
:020c280000fbcf
:020c29000101c7
:020c2a000108bf
:020c2b00010eb8
:020c2c000114b1
:020c2d00011aaa
:020c2e000121a2
:020c2f0001279b
:020c3000012d94
:020c310001348c
:020c3200013a85
:020c330001407e
:020c3400014677
:020c3500014d6f
:020c3600015368
:020c3700015961
:020c3800015f5a
:020c3900016652
:020c3a00016c4b
:020c3b00017244
:020c3c0001783d
:020c3d00017f35
:020c3e0001852e
:020c3f00018b27
:020c4000019120
:020c4100019818
:020c4200019e11
:020c430001a40a
:020c440001aa03
:020c450001b1fb
:020c460001b7f4
:020c470001bded
:020c480001c3e6
:020c490001cade
:020c4a0001d0d7
:020c4b0001d6d0
:020c4c0001dcc9
:020c4d0001e3c1
:020c4e0001e9ba
:020c4f0001efb3
:020c500001f5ac
:020c510001fca4
:020c520002029c
:020c5300020895
:020c5400020e8e
:020c5500021487
:020c5600021b7f
:020c5700022178
:020c5800022771
:020c5900022d6a
:020c5a00023462
:020c5b00023a5b
:020c5c00024054
:020c5d0002464d
:020c5e00024c46
:020c5f0002533e
:020c6000025937
:020c6100025f30
:020c6200026529
:020c6300026b22
:020c640002721a
:020c6500027813
:020c6600027e0c
:020c6700028405
:020c6800028bfd
:020c69000291f6
:020c6a000297ef
:020c6b00029de8
:020c6c0002a3e1
:020c6d0002aad9
:020c6e0002b0d2
:020c6f0002b6cb
:020c700002bcc4
:020c710002c2bd
:020c720002c8b6
:020c730002cfae
:020c740002d5a7
:020c750002dba0
:020c760002e199
:020c770002e792
:020c780002ee8a
:020c790002f483
:020c7a0002fa7c
:020c7b00030074
:020c7c0003066d
:020c7d00030c66
:020c7e0003135e
:020c7f00031957
:020c8000031f50
:020c8100032549
:020c8200032b42
:020c830003313b
:020c8400033833
:020c8500033e2c
:020c8600034425
:020c8700034a1e
:020c8800035017
:020c8900035610
:020c8a00035c09
:020c8b00036301
:020c8c000369fa
:020c8d00036ff3
:020c8e000375ec
:020c8f00037be5
:020c90000381de
:020c91000387d7
:020c9200038dd0
:020c93000394c8
:020c9400039ac1
:020c950003a0ba
:020c960003a6b3
:020c970003acac
:020c980003b2a5
:020c990003b89e
:020c9a0003be97
:020c9b0003c58f
:020c9c0003cb88
:020c9d0003d181
:020c9e0003d77a
:020c9f0003dd73
:020ca00003e36c
:020ca10003e965
:020ca20003ef5e
:020ca30003f557
:020ca40003fb50
:020ca500040148
:020ca600040840
:020ca700040e39
:020ca800041432
:020ca900041a2b
:020caa00042024
:020cab0004261d
:020cac00042c16
:020cad0004320f
:020cae00043808
:020caf00043e01
:020cb0000444fa
:020cb100044af3
:020cb2000450ec
:020cb3000456e5
:020cb400045cde
:020cb5000462d7
:020cb6000468d0
:020cb700046fc8
:020cb8000475c1
:020cb900047bba
:020cba000481b3
:020cbb000487ac
:020cbc00048da5
:020cbd0004939e
:020cbe00049997
:020cbf00049f90
:020cc00004a589
:020cc10004ab82
:020cc20004b17b
:020cc30004b774
:020cc40004bd6d
:020cc50004c366
:020cc60004c95f
:020cc70004cf58
:020cc80004d551
:020cc90004db4a
:020cca0004e143
:020ccb0004e73c
:020ccc0004ed35
:020ccd0004f32e
:020cce0004f927
:020ccf0004ff20
:020cd000050518
:020cd100050a12
:020cd20005100b
:020cd300051604
:020cd400051cfd
:020cd5000522f6
:020cd6000528ef
:020cd700052ee8
:020cd8000534e1
:020cd900053ada
:020cda000540d3
:020cdb000546cc
:020cdc00054cc5
:020cdd000552be
:020cde000558b7
:020cdf00055eb0
:020ce0000564a9
:020ce1000569a3
:020ce200056f9c
:020ce300057595
:020ce400057b8e
:020ce500058187
:020ce600058780
:020ce700058d79
:020ce800059372
:020ce90005996b
:020cea00059f64
:020ceb0005a45e
:020cec0005aa57
:020ced0005b050
:020cee0005b649
:020cef0005bc42
:020cf00005c23b
:020cf10005c834
:020cf20005cd2e
:020cf30005d327
:020cf40005d920
:020cf50005df19
:020cf60005e512
:020cf70005eb0b
:020cf80005f104
:020cf90005f6fe
:020cfa0005fcf7
:020cfb000602ef
:020cfc000608e8
:020cfd00060ee1
:020cfe000613db
:020cff000619d4
:020d0000061fcc
:020d01000625c5
:020d0200062bbe
:020d03000630b8
:020d04000636b1
:020d0500063caa
:020d06000642a3
:020d070006489c
:020d0800064d96
:020d090006538f
:020d0a00065988
:020d0b00065f81
:020d0c0006647b
:020d0d00066a74
:020d0e0006706d
:020d0f00067666
:020d1000067b60
:020d1100068159
:020d1200068752
:020d1300068d4b
:020d1400069245
:020d150006983e
:020d1600069e37
:020d170006a430
:020d180006a92a
:020d190006af23
:020d1a0006b51c
:020d1b0006ba16
:020d1c0006c00f
:020d1d0006c608
:020d1e0006cb02
:020d1f0006d1fb
:020d200006d7f4
:020d210006dded
:020d220006e2e7
:020d230006e8e0
:020d240006eed9
:020d250006f3d3
:020d260006f9cc
:020d270006fec6
:020d28000704be
:020d2900070ab7
:020d2a00070fb1
:020d2b000715aa
:020d2c00071ba3
:020d2d0007209d
:020d2e00072696
:020d2f00072c8f
:020d3000073189
:020d3100073782
:020d3200073c7c
:020d3300074275
:020d340007486e
:020d3500074d68
:020d3600075361
:020d370007585b
:020d3800075e54
:020d390007634e
:020d3a00076947
:020d3b00076f40
:020d3c0007743a
:020d3d00077a33
:020d3e00077f2d
:020d3f00078526
:020d4000078a20
:020d4100079019
:020d4200079513
:020d4300079b0c
:020d440007a006
:020d450007a6ff
:020d460007acf8
:020d470007b1f2
:020d480007b7eb
:020d490007bce5
:020d4a0007c2de
:020d4b0007c7d8
:020d4c0007cdd1
:020d4d0007d2cb
:020d4e0007d7c5
:020d4f0007ddbe
:020d500007e2b8
:020d510007e8b1
:020d520007edab
:020d530007f3a4
:020d540007f89e
:020d550007fe97
:020d5600080390
:020d5700080989
:020d5800080e83
:020d590008137d
:020d5a00081976
:020d5b00081e70
:020d5c00082469
:020d5d00082963
:020d5e00082e5d
:020d5f00083456
:020d6000083950
:020d6100083f49
:020d6200084443
:020d630008493d
:020d6400084f36
:020d6500085430
:020d660008592a
:020d6700085f23
:020d680008641d
:020d6900086a16
:020d6a00086f10
:020d6b0008740a
:020d6c00087a03
:020d6d00087ffd
:020d6e000884f7
:020d6f00088af0
:020d7000088fea
:020d71000894e4
:020d72000899de
:020d7300089fd7
:020d740008a4d1
:020d750008a9cb
:020d760008afc4
:020d770008b4be
:020d780008b9b8
:020d790008beb2
:020d7a0008c4ab
:020d7b0008c9a5
:020d7c0008ce9f
:020d7d0008d399
:020d7e0008d992
:020d7f0008de8c
:020d800008e386
:020d810008e880
:020d820008ed7a
:020d830008f373
:020d840008f86d
:020d850008fd67
:020d8600090260
:020d870009075a
:020d8800090d53
:020d890009124d
:020d8a00091747
:020d8b00091c41
:020d8c0009213b
:020d8d00092734
:020d8e00092c2e
:020d8f00093128
:020d9000093622
:020d9100093b1c
:020d9200094016
:020d9300094510
:020d9400094a0a
:020d9500095003
:020d96000955fd
:020d9700095af7
:020d9800095ff1
:020d99000964eb
:020d9a000969e5
:020d9b00096edf
:020d9c000973d9
:020d9d000978d3
:020d9e00097dcd
:020d9f000982c7
:020da0000987c1
:020da100098cbb
:020da2000991b5
:020da3000996af
:020da400099ca8
:020da50009a1a2
:020da60009a69c
:020da70009ab96
:020da80009b090
:020da90009b58a
:020daa0009ba84
:020dab0009bf7e
:020dac0009c478
:020dad0009c873
:020dae0009cd6d
:020daf0009d267
:020db00009d761
:020db10009dc5b
:020db20009e155
:020db30009e64f
:020db40009eb49
:020db50009f043
:020db60009f53d
:020db70009fa37
:020db80009ff31
:020db9000a042a
:020dba000a0924
:020dbb000a0d1f
:020dbc000a1219
:020dbd000a1713
:020dbe000a1c0d
:020dbf000a2107
:020dc0000a2601
:020dc1000a2bfb
:020dc2000a30f5
:020dc3000a34f0
:020dc4000a39ea
:020dc5000a3ee4
:020dc6000a43de
:020dc7000a48d8
:020dc8000a4cd3
:020dc9000a51cd
:020dca000a56c7
:020dcb000a5bc1
:020dcc000a60bb
:020dcd000a64b6
:020dce000a69b0
:020dcf000a6eaa
:020dd0000a73a4
:020dd1000a779f
:020dd2000a7c99
:020dd3000a8193
:020dd4000a868d
:020dd5000a8a88
:020dd6000a8f82
:020dd7000a947c
:020dd8000a9976
:020dd9000a9d71
:020dda000aa26b
:020ddb000aa765
:020ddc000aab60
:020ddd000ab05a
:020dde000ab554
:020ddf000ab94f
:020de0000abe49
:020de1000ac343
:020de2000ac73e
:020de3000acc38
:020de4000ad132
:020de5000ad52d
:020de6000ada27
:020de7000ade22
:020de8000ae31c
:020de9000ae816
:020dea000aec11
:020deb000af10b
:020dec000af506
:020ded000afa00
:020dee000afffa
:020def000b03f4
:020df0000b08ee
:020df1000b0ce9
:020df2000b11e3
:020df3000b15de
:020df4000b1ad8
:020df5000b1ed3
:020df6000b23cd
:020df7000b27c8
:020df8000b2cc2
:020df9000b30bd
:020dfa000b35b7
:020dfb000b39b2
:020dfc000b3eac
:020dfd000b42a7
:020dfe000b47a1
:020dff000b4b9c
:020e00000b5095
:020e01000b5490
:020e02000b588b
:020e03000b5d85
:020e04000b6180
:020e05000b667a
:020e06000b6a75
:020e07000b6f6f
:020e08000b736a
:020e09000b7765
:020e0a000b7c5f
:020e0b000b805a
:020e0c000b8455
:020e0d000b894f
:020e0e000b8d4a
:020e0f000b9145
:020e10000b963f
:020e11000b9a3a
:020e12000b9e35
:020e13000ba32f
:020e14000ba72a
:020e15000bab25
:020e16000bb01f
:020e17000bb41a
:020e18000bb815
:020e19000bbc10
:020e1a000bc10a
:020e1b000bc505
:020e1c000bc900
:020e1d000bcefa
:020e1e000bd2f5
:020e1f000bd6f0
:020e20000bdaeb
:020e21000bdee6
:020e22000be3e0
:020e23000be7db
:020e24000bebd6
:020e25000befd1
:020e26000bf3cc
:020e27000bf8c6
:020e28000bfcc1
:020e29000c00bb
:020e2a000c04b6
:020e2b000c08b1
:020e2c000c0cac
:020e2d000c10a7
:020e2e000c15a1
:020e2f000c199c
:020e30000c1d97
:020e31000c2192
:020e32000c258d
:020e33000c2988
:020e34000c2d83
:020e35000c317e
:020e36000c3579
:020e37000c3974
:020e38000c3d6f
:020e39000c416a
:020e3a000c4565
:020e3b000c4960
:020e3c000c4d5b
:020e3d000c5156
:020e3e000c5551
:020e3f000c594c
:020e40000c5d47
:020e41000c6142
:020e42000c653d
:020e43000c6938
:020e44000c6d33
:020e45000c712e
:020e46000c7529
:020e47000c7924
:020e48000c7d1f
:020e49000c811a
:020e4a000c8515
:020e4b000c8910
:020e4c000c8d0b
:020e4d000c9106
:020e4e000c9501
:020e4f000c98fd
:020e50000c9cf8
:020e51000ca0f3
:020e52000ca4ee
:020e53000ca8e9
:020e54000cace4
:020e55000cb0df
:020e56000cb3db
:020e57000cb7d6
:020e58000cbbd1
:020e59000cbfcc
:020e5a000cc3c7
:020e5b000cc6c3
:020e5c000ccabe
:020e5d000cceb9
:020e5e000cd2b4
:020e5f000cd5b0
:020e60000cd9ab
:020e61000cdda6
:020e62000ce1a1
:020e63000ce49d
:020e64000ce898
:020e65000cec93
:020e66000cef8f
:020e67000cf38a
:020e68000cf785
:020e69000cfa81
:020e6a000cfe7c
:020e6b000d0276
:020e6c000d0572
:020e6d000d096d
:020e6e000d0d68
:020e6f000d1064
:020e70000d145f
:020e71000d185a
:020e72000d1b56
:020e73000d1f51
:020e74000d224d
:020e75000d2648
:020e76000d2a43
:020e77000d2d3f
:020e78000d313a
:020e79000d3436
:020e7a000d3831
:020e7b000d3b2d
:020e7c000d3f28
:020e7d000d4224
:020e7e000d461f
:020e7f000d491b
:020e80000d4d16
:020e81000d5012
:020e82000d540d
:020e83000d5709
:020e84000d5b04
:020e85000d5e00
:020e86000d62fb
:020e87000d65f7
:020e88000d69f2
:020e89000d6cee
:020e8a000d6fea
:020e8b000d73e5
:020e8c000d76e1
:020e8d000d7adc
:020e8e000d7dd8
:020e8f000d80d4
:020e90000d84cf
:020e91000d87cb
:020e92000d8ac7
:020e93000d8ec2
:020e94000d91be
:020e95000d94ba
:020e96000d98b5
:020e97000d9bb1
:020e98000d9ead
:020e99000da2a8
:020e9a000da5a4
:020e9b000da8a0
:020e9c000dab9c
:020e9d000daf97
:020e9e000db293
:020e9f000db58f
:020ea0000db88b
:020ea1000dbc86
:020ea2000dbf82
:020ea3000dc27e
:020ea4000dc57a
:020ea5000dc876
:020ea6000dcc71
:020ea7000dcf6d
:020ea8000dd269
:020ea9000dd565
:020eaa000dd861
:020eab000ddb5d
:020eac000ddf58
:020ead000de254
:020eae000de550
:020eaf000de84c
:020eb0000deb48
:020eb1000dee44
:020eb2000df140
:020eb3000df43c
:020eb4000df738
:020eb5000dfa34
:020eb6000dfd30
:020eb7000e002b
:020eb8000e0426
:020eb9000e0722
:020eba000e0a1e
:020ebb000e0d1a
:020ebc000e1016
:020ebd000e1312
:020ebe000e160e
:020ebf000e190a
:020ec0000e1b07
:020ec1000e1e03
:020ec2000e21ff
:020ec3000e24fb
:020ec4000e27f7
:020ec5000e2af3
:020ec6000e2def
:020ec7000e30eb
:020ec8000e33e7
:020ec9000e36e3
:020eca000e39df
:020ecb000e3cdb
:020ecc000e3ed8
:020ecd000e41d4
:020ece000e44d0
:020ecf000e47cc
:020ed0000e4ac8
:020ed1000e4dc4
:020ed2000e4fc1
:020ed3000e52bd
:020ed4000e55b9
:020ed5000e58b5
:020ed6000e5bb1
:020ed7000e5dae
:020ed8000e60aa
:020ed9000e63a6
:020eda000e66a2
:020edb000e689f
:020edc000e6b9b
:020edd000e6e97
:020ede000e7094
:020edf000e7390
:020ee0000e768c
:020ee1000e7988
:020ee2000e7b85
:020ee3000e7e81
:020ee4000e817d
:020ee5000e837a
:020ee6000e8676
:020ee7000e8873
:020ee8000e8b6f
:020ee9000e8e6b
:020eea000e9068
:020eeb000e9364
:020eec000e9561
:020eed000e985d
:020eee000e9b59
:020eef000e9d56
:020ef0000ea052
:020ef1000ea24f
:020ef2000ea54b
:020ef3000ea748
:020ef4000eaa44
:020ef5000eac41
:020ef6000eaf3d
:020ef7000eb13a
:020ef8000eb436
:020ef9000eb633
:020efa000eb92f
:020efb000ebb2c
:020efc000ebe28
:020efd000ec025
:020efe000ec222
:020eff000ec51e
:020f00000ec71a
:020f01000eca16
:020f02000ecc13
:020f03000ece10
:020f04000ed10c
:020f05000ed309
:020f06000ed605
:020f07000ed802
:020f08000edaff
:020f09000eddfb
:020f0a000edff8
:020f0b000ee1f5
:020f0c000ee3f2
:020f0d000ee6ee
:020f0e000ee8eb
:020f0f000eeae8
:020f10000eede4
:020f11000eefe1
:020f12000ef1de
:020f13000ef3db
:020f14000ef6d7
:020f15000ef8d4
:020f16000efad1
:020f17000efcce
:020f18000efecb
:020f19000f01c6
:020f1a000f03c3
:020f1b000f05c0
:020f1c000f07bd
:020f1d000f09ba
:020f1e000f0bb7
:020f1f000f0eb3
:020f20000f10b0
:020f21000f12ad
:020f22000f14aa
:020f23000f16a7
:020f24000f18a4
:020f25000f1aa1
:020f26000f1c9e
:020f27000f1e9b
:020f28000f2098
:020f29000f2295
:020f2a000f2492
:020f2b000f268f
:020f2c000f288c
:020f2d000f2a89
:020f2e000f2c86
:020f2f000f2e83
:020f30000f3080
:020f31000f327d
:020f32000f347a
:020f33000f3677
:020f34000f3874
:020f35000f3a71
:020f36000f3c6e
:020f37000f3e6b
:020f38000f4068
:020f39000f4265
:020f3a000f4462
:020f3b000f4560
:020f3c000f475d
:020f3d000f495a
:020f3e000f4b57
:020f3f000f4d54
:020f40000f4f51
:020f41000f504f
:020f42000f524c
:020f43000f5449
:020f44000f5646
:020f45000f5843
:020f46000f5941
:020f47000f5b3e
:020f48000f5d3b
:020f49000f5f38
:020f4a000f6036
:020f4b000f6233
:020f4c000f6430
:020f4d000f662d
:020f4e000f672b
:020f4f000f6928
:020f50000f6b25
:020f51000f6c23
:020f52000f6e20
:020f53000f701d
:020f54000f711b
:020f55000f7318
:020f56000f7515
:020f57000f7613
:020f58000f7810
:020f59000f790e
:020f5a000f7b0b
:020f5b000f7d08
:020f5c000f7e06
:020f5d000f8003
:020f5e000f8101
:020f5f000f83fe
:020f60000f84fc
:020f61000f86f9
:020f62000f87f7
:020f63000f89f4
:020f64000f8af2
:020f65000f8cef
:020f66000f8ded
:020f67000f8fea
:020f68000f90e8
:020f69000f92e5
:020f6a000f93e3
:020f6b000f95e0
:020f6c000f96de
:020f6d000f97dc
:020f6e000f99d9
:020f6f000f9ad7
:020f70000f9cd4
:020f71000f9dd2
:020f72000f9ed0
:020f73000fa0cd
:020f74000fa1cb
:020f75000fa2c9
:020f76000fa4c6
:020f77000fa5c4
:020f78000fa6c2
:020f79000fa8bf
:020f7a000fa9bd
:020f7b000faabb
:020f7c000fabb9
:020f7d000fadb6
:020f7e000faeb4
:020f7f000fafb2
:020f80000fb0b0
:020f81000fb2ad
:020f82000fb3ab
:020f83000fb4a9
:020f84000fb5a7
:020f85000fb6a5
:020f86000fb7a3
:020f87000fb9a0
:020f88000fba9e
:020f89000fbb9c
:020f8a000fbc9a
:020f8b000fbd98
:020f8c000fbe96
:020f8d000fbf94
:020f8e000fc191
:020f8f000fc28f
:020f90000fc38d
:020f91000fc48b
:020f92000fc589
:020f93000fc687
:020f94000fc785
:020f95000fc883
:020f96000fc981
:020f97000fca7f
:020f98000fcb7d
:020f99000fcc7b
:020f9a000fcd79
:020f9b000fce77
:020f9c000fcf75
:020f9d000fd073
:020f9e000fd171
:020f9f000fd26f
