:020000000ffff0
:020001000fffef
:020002000fffee
:020003000fffed
:020004000fffec
:020005000fffeb
:020006000fffea
:020007000fffe9
:020008000fffe8
:020009000fffe7
:02000a000fffe6
:02000b000fffe5
:02000c000fffe4
:02000d000fffe3
:02000e000fffe2
:02000f000fffe1
:020010000fffe0
:020011000fffdf
:020012000fffde
:020013000fffdd
:020014000fffdc
:020015000fffdb
:020016000fffda
:020017000fffd9
:020018000fffd8
:020019000fffd7
:02001a000fffd6
:02001b000fffd5
:02001c000fffd4
:02001d000fffd3
:02001e000fffd2
:02001f000fffd1
:020020000fffd0
:020021000fffcf
:020022000fffce
:020023000fffcd
:020024000fffcc
:020025000fffcb
:020026000fffca
:020027000fffc9
:020028000fffc8
:020029000fffc7
:02002a000fffc6
:02002b000fffc5
:02002c000fffc4
:02002d000fffc3
:02002e000fffc2
:02002f000fffc1
:020030000fffc0
:020031000fffbf
:020032000fffbe
:020033000fffbd
:020034000fffbc
:020035000fffbb
:020036000fffba
:020037000fffb9
:020038000fffb8
:020039000fffb7
:02003a000fffb6
:02003b000fffb5
:02003c000fffb4
:02003d000fffb3
:02003e000fffb2
:02003f000fffb1
:020040000fffb0
:020041000fffaf
:020042000fffae
:020043000fffad
:020044000fffac
:020045000fffab
:020046000fffaa
:020047000fffa9
:020048000fffa8
:020049000fffa7
:02004a000fffa6
:02004b000fffa5
:02004c000fffa4
:02004d000fffa3
:02004e000fffa2
:02004f000fffa1
:020050000fffa0
:020051000fff9f
:020052000fff9e
:020053000fff9d
:020054000fff9c
:020055000fff9b
:020056000fff9a
:020057000fff99
:020058000fff98
:020059000fff97
:02005a000fff96
:02005b000fff95
:02005c000fff94
:02005d000fff93
:02005e000fff92
:02005f000fff91
:020060000fff90
:020061000fff8f
:020062000fff8e
:020063000fff8d
:020064000fff8c
:020065000fff8b
:020066000fff8a
:020067000fff89
:020068000fff88
:020069000fff87
:02006a000fff86
:02006b000fff85
:02006c000fff84
:02006d000fff83
:02006e000fff82
:02006f000fff81
:020070000fff80
:020071000fff7f
:020072000fff7e
:020073000fff7d
:020074000fff7c
:020075000fff7b
:020076000fff7a
:020077000fff79
:020078000fff78
:020079000fff77
:02007a000fff76
:02007b000fff75
:02007c000fff74
:02007d000fff73
:02007e000fff72
:02007f000fff71
:020080000fff70
:020081000fff6f
:020082000fff6e
:020083000fff6d
:020084000fff6c
:020085000fff6b
:020086000fff6a
:020087000fff69
:020088000fff68
:020089000fff67
:02008a000fff66
:02008b000fff65
:02008c000fff64
:02008d000fff63
:02008e000fff62
:02008f000fff61
:020090000fff60
:020091000fff5f
:020092000fff5e
:020093000fff5d
:020094000fff5c
:020095000fff5b
:020096000fff5a
:020097000fff59
:020098000fff58
:020099000fff57
:02009a000fff56
:02009b000fff55
:02009c000fff54
:02009d000fff53
:02009e000fff52
:02009f000fff51
:0200a0000fff50
:0200a1000fff4f
:0200a2000fff4e
:0200a3000fff4d
:0200a4000fff4c
:0200a5000fff4b
:0200a6000fff4a
:0200a7000fff49
:0200a8000fff48
:0200a9000fff47
:0200aa000fff46
:0200ab000fff45
:0200ac000fff44
:0200ad000fff43
:0200ae000fff42
:0200af000fff41
:0200b0000fff40
:0200b1000fff3f
:0200b2000fff3e
:0200b3000fff3d
:0200b4000fff3c
:0200b5000fff3b
:0200b6000fff3a
:0200b7000fff39
:0200b8000fff38
:0200b9000fff37
:0200ba000fff36
:0200bb000fff35
:0200bc000fff34
:0200bd000fff33
:0200be000fff32
:0200bf000fff31
:0200c0000fff30
:0200c1000fff2f
:0200c2000fff2e
:0200c3000fff2d
:0200c4000fff2c
:0200c5000fff2b
:0200c6000fff2a
:0200c7000fff29
:0200c8000fff28
:0200c9000fff27
:0200ca000fff26
:0200cb000fff25
:0200cc000fff24
:0200cd000fff23
:0200ce000fff22
:0200cf000fff21
:0200d0000fff20
:0200d1000fff1f
:0200d2000fff1e
:0200d3000fff1d
:0200d4000fff1c
:0200d5000fff1b
:0200d6000fff1a
:0200d7000fff19
:0200d8000fff18
:0200d9000fff17
:0200da000fff16
:0200db000fff15
:0200dc000fff14
:0200dd000fff13
:0200de000fff12
:0200df000fff11
:0200e0000fff10
:0200e1000fff0f
:0200e2000fff0e
:0200e3000fff0d
:0200e4000fff0c
:0200e5000fff0b
:0200e6000fff0a
:0200e7000fff09
:0200e8000fff08
:0200e9000fff07
:0200ea000fff06
:0200eb000fff05
:0200ec000fff04
:0200ed000fff03
:0200ee000fff02
:0200ef000fff01
:0200f0000fff00
:0200f1000fffff
:0200f2000ffffe
:0200f3000ffffd
:0200f4000ffffc
:0200f5000ffffb
:0200f6000ffffa
:0200f7000ffff9
:0200f8000ffff8
:0200f9000ffff7
:0200fa000ffff6
:0200fb000ffff5
:0200fc000ffff4
:0200fd000ffff3
:0200fe000ffff2
:0200ff000ffff1
:020100000fffef
:020101000fffee
:020102000fffed
:020103000fffec
:020104000fffeb
:020105000fffea
:020106000fffe9
:020107000fffe8
:020108000fffe7
:020109000fffe6
:02010a000fffe5
:02010b000fffe4
:02010c000fffe3
:02010d000fffe2
:02010e000fffe1
:02010f000fffe0
:020110000fffdf
:020111000fffde
:020112000fffdd
:020113000fffdc
:020114000fffdb
:020115000fffda
:020116000fffd9
:020117000fffd8
:020118000fffd7
:020119000fffd6
:02011a000fffd5
:02011b000fffd4
:02011c000fffd3
:02011d000fffd2
:02011e000fffd1
:02011f000fffd0
:020120000fffcf
:020121000fffce
:020122000fffcd
:020123000fffcc
:020124000fffcb
:020125000fffca
:020126000fffc9
:020127000fffc8
:020128000fffc7
:020129000fffc6
:02012a000fffc5
:02012b000fffc4
:02012c000fffc3
:02012d000fffc2
:02012e000fffc1
:02012f000fffc0
:020130000fffbf
:020131000fffbe
:020132000fffbd
:020133000fffbc
:020134000fffbb
:020135000fffba
:020136000fffb9
:020137000fffb8
:020138000fffb7
:020139000fffb6
:02013a000fffb5
:02013b000fffb4
:02013c000fffb3
:02013d000fffb2
:02013e000fffb1
:02013f000fffb0
:020140000fffaf
:020141000fffae
:020142000fffad
:020143000fffac
:020144000fffab
:020145000fffaa
:020146000fffa9
:020147000fffa8
:020148000fffa7
:020149000fffa6
:02014a000fffa5
:02014b000fffa4
:02014c000fffa3
:02014d000fffa2
:02014e000fffa1
:02014f000fffa0
:020150000fff9f
:020151000fff9e
:020152000fff9d
:020153000fff9c
:020154000fff9b
:020155000fff9a
:020156000fff99
:020157000fff98
:020158000fff97
:020159000fff96
:02015a000fff95
:02015b000fff94
:02015c000fff93
:02015d000fff92
:02015e000fff91
:02015f000fff90
:020160000fff8f
:020161000fff8e
:020162000fff8d
:020163000fff8c
:020164000fff8b
:020165000fff8a
:020166000fff89
:020167000fff88
:020168000fff87
:020169000fff86
:02016a000fff85
:02016b000fff84
:02016c000fff83
:02016d000fff82
:02016e000fff81
:02016f000fff80
:020170000fff7f
:020171000fff7e
:020172000fff7d
:020173000fff7c
:020174000fff7b
:020175000fff7a
:020176000fff79
:020177000fff78
:020178000fff77
:020179000fff76
:02017a000fff75
:02017b000fff74
:02017c000fff73
:02017d000fff72
:02017e000fff71
:02017f000fff70
:020180000fff6f
:020181000fff6e
:020182000fff6d
:020183000fff6c
:020184000fff6b
:020185000fff6a
:020186000fff69
:020187000fff68
:020188000fff67
:020189000fff66
:02018a000fff65
:02018b000fff64
:02018c000fff63
:02018d000fff62
:02018e000fff61
:02018f000fff60
:020190000fff5f
:020191000fff5e
:020192000fff5d
:020193000fff5c
:020194000fff5b
:020195000fff5a
:020196000fff59
:020197000fff58
:020198000fff57
:020199000fff56
:02019a000fff55
:02019b000fff54
:02019c000fff53
:02019d000fff52
:02019e000fff51
:02019f000fff50
:0201a0000fff4f
:0201a1000fff4e
:0201a2000fff4d
:0201a3000fff4c
:0201a4000fff4b
:0201a5000fff4a
:0201a6000fff49
:0201a7000fff48
:0201a8000fff47
:0201a9000fff46
:0201aa000fff45
:0201ab000fff44
:0201ac000fff43
:0201ad000fff42
:0201ae000fff41
:0201af000fff40
:0201b0000fff3f
:0201b1000fff3e
:0201b2000fff3d
:0201b3000fff3c
:0201b4000fff3b
:0201b5000fff3a
:0201b6000fff39
:0201b7000fff38
:0201b8000fff37
:0201b9000fff36
:0201ba000fff35
:0201bb000fff34
:0201bc000fff33
:0201bd000fff32
:0201be000fff31
:0201bf000fff30
:0201c0000fff2f
:0201c1000fff2e
:0201c2000fff2d
:0201c3000fff2c
:0201c4000fff2b
:0201c5000fff2a
:0201c6000fff29
:0201c7000fff28
:0201c8000fff27
:0201c9000fff26
:0201ca000fff25
:0201cb000fff24
:0201cc000fff23
:0201cd000fff22
:0201ce000fff21
:0201cf000fff20
:0201d0000fff1f
:0201d1000fff1e
:0201d2000fff1d
:0201d3000fff1c
:0201d4000fff1b
:0201d5000fff1a
:0201d6000fff19
:0201d7000fff18
:0201d8000fff17
:0201d9000fff16
:0201da000fff15
:0201db000fff14
:0201dc000fff13
:0201dd000fff12
:0201de000fff11
:0201df000fff10
:0201e0000fff0f
:0201e1000fff0e
:0201e2000fff0d
:0201e3000fff0c
:0201e4000fff0b
:0201e5000fff0a
:0201e6000fff09
:0201e7000fff08
:0201e8000fff07
:0201e9000fff06
:0201ea000fff05
:0201eb000fff04
:0201ec000fff03
:0201ed000fff02
:0201ee000fff01
:0201ef000fff00
:0201f0000fffff
:0201f1000ffffe
:0201f2000ffffd
:0201f3000ffffc
:0201f4000ffffb
:0201f5000ffffa
:0201f6000ffff9
:0201f7000ffff8
:0201f8000ffff7
:0201f9000ffff6
:0201fa000ffff5
:0201fb000ffff4
:0201fc000ffff3
:0201fd000ffff2
:0201fe000ffff1
:0201ff000ffff0
:020200000fffee
:020201000fffed
:020202000fffec
:020203000fffeb
:020204000fffea
:020205000fffe9
:020206000fffe8
:020207000fffe7
:020208000fffe6
:020209000fffe5
:02020a000fffe4
:02020b000fffe3
:02020c000fffe2
:02020d000fffe1
:02020e000fffe0
:02020f000fffdf
:020210000fffde
:020211000fffdd
:020212000fffdc
:020213000fffdb
:020214000fffda
:020215000fffd9
:020216000fffd8
:020217000fffd7
:020218000fffd6
:020219000fffd5
:02021a000fffd4
:02021b000fffd3
:02021c000fffd2
:02021d000fffd1
:02021e000fffd0
:02021f000fffcf
:020220000fffce
:020221000fffcd
:020222000fffcc
:020223000fffcb
:020224000fffca
:020225000fffc9
:020226000fffc8
:020227000fffc7
:020228000fffc6
:020229000fffc5
:02022a000fffc4
:02022b000fffc3
:02022c000fffc2
:02022d000fffc1
:02022e000fffc0
:02022f000fffbf
:020230000fffbe
:020231000fffbd
:020232000fffbc
:020233000fffbb
:020234000fffba
:020235000fffb9
:020236000fffb8
:020237000fffb7
:020238000fffb6
:020239000fffb5
:02023a000fffb4
:02023b000fffb3
:02023c000fffb2
:02023d000fffb1
:02023e000fffb0
:02023f000fffaf
:020240000fffae
:020241000fffad
:020242000fffac
:020243000fffab
:020244000fffaa
:020245000fffa9
:020246000fffa8
:020247000fffa7
:020248000fffa6
:020249000fffa5
:02024a000fffa4
:02024b000fffa3
:02024c000fffa2
:02024d000fffa1
:02024e000fffa0
:02024f000fff9f
:020250000fff9e
:020251000fff9d
:020252000fff9c
:020253000fff9b
:020254000fff9a
:020255000fff99
:020256000fff98
:020257000fff97
:020258000fff96
:020259000fff95
:02025a000fff94
:02025b000fff93
:02025c000fff92
:02025d000fff91
:02025e000fff90
:02025f000fff8f
:020260000fff8e
:020261000fff8d
:020262000fff8c
:020263000fff8b
:020264000fff8a
:020265000fff89
:020266000fff88
:020267000fff87
:020268000fff86
:020269000fff85
:02026a000fff84
:02026b000fff83
:02026c000fff82
:02026d000fff81
:02026e000fff80
:02026f000fff7f
:020270000fff7e
:020271000fff7d
:020272000fff7c
:020273000fff7b
:020274000fff7a
:020275000fff79
:020276000fff78
:020277000fff77
:020278000fff76
:020279000fff75
:02027a000fff74
:02027b000fff73
:02027c000fff72
:02027d000fff71
:02027e000fff70
:02027f000fff6f
:020280000fff6e
:020281000fff6d
:020282000fff6c
:020283000fff6b
:020284000fff6a
:020285000fff69
:020286000fff68
:020287000fff67
:020288000fff66
:020289000fff65
:02028a000fff64
:02028b000fff63
:02028c000fff62
:02028d000fff61
:02028e000fff60
:02028f000fff5f
:020290000fff5e
:020291000fff5d
:020292000fff5c
:020293000fff5b
:020294000fff5a
:020295000fff59
:020296000fff58
:020297000fff57
:020298000fff56
:020299000fff55
:02029a000fff54
:02029b000fff53
:02029c000fff52
:02029d000fff51
:02029e000fff50
:02029f000fff4f
:0202a0000fff4e
:0202a1000fff4d
:0202a2000fff4c
:0202a3000fff4b
:0202a4000fff4a
:0202a5000fff49
:0202a6000fff48
:0202a7000fff47
:0202a8000fff46
:0202a9000fff45
:0202aa000fff44
:0202ab000fff43
:0202ac000fff42
:0202ad000fff41
:0202ae000fff40
:0202af000fff3f
:0202b0000fff3e
:0202b1000fff3d
:0202b2000fff3c
:0202b3000fff3b
:0202b4000fff3a
:0202b5000fff39
:0202b6000fff38
:0202b7000fff37
:0202b8000fff36
:0202b9000fff35
:0202ba000fff34
:0202bb000fff33
:0202bc000fff32
:0202bd000fff31
:0202be000fff30
:0202bf000fff2f
:0202c0000fff2e
:0202c1000fff2d
:0202c2000fff2c
:0202c3000fff2b
:0202c4000fff2a
:0202c5000fff29
:0202c6000fff28
:0202c7000fff27
:0202c8000fff26
:0202c9000fff25
:0202ca000fff24
:0202cb000fff23
:0202cc000fff22
:0202cd000fff21
:0202ce000fff20
:0202cf000fff1f
:0202d0000fff1e
:0202d1000fff1d
:0202d2000fff1c
:0202d3000fff1b
:0202d4000fff1a
:0202d5000fff19
:0202d6000fff18
:0202d7000fff17
:0202d8000fff16
:0202d9000fff15
:0202da000fff14
:0202db000fff13
:0202dc000fff12
:0202dd000fff11
:0202de000fff10
:0202df000fff0f
:0202e0000fff0e
:0202e1000fff0d
:0202e2000fff0c
:0202e3000fff0b
:0202e4000fff0a
:0202e5000fff09
:0202e6000fff08
:0202e7000fff07
:0202e8000fff06
:0202e9000fff05
:0202ea000fff04
:0202eb000fff03
:0202ec000fff02
:0202ed000fff01
:0202ee000fff00
:0202ef000fffff
:0202f0000ffffe
:0202f1000ffffd
:0202f2000ffffc
:0202f3000ffffb
:0202f4000ffffa
:0202f5000ffff9
:0202f6000ffff8
:0202f7000ffff7
:0202f8000ffff6
:0202f9000ffff5
:0202fa000ffff4
:0202fb000ffff3
:0202fc000ffff2
:0202fd000ffff1
:0202fe000ffff0
:0202ff000fffef
:020300000fffed
:020301000fffec
:020302000fffeb
:020303000fffea
:020304000fffe9
:020305000fffe8
:020306000fffe7
:020307000fffe6
:020308000fffe5
:020309000fffe4
:02030a000fffe3
:02030b000fffe2
:02030c000fffe1
:02030d000fffe0
:02030e000fffdf
:02030f000fffde
:020310000fffdd
:020311000fffdc
:020312000fffdb
:020313000fffda
:020314000fffd9
:020315000fffd8
:020316000fffd7
:020317000fffd6
:020318000fffd5
:020319000fffd4
:02031a000fffd3
:02031b000fffd2
:02031c000fffd1
:02031d000fffd0
:02031e000fffcf
:02031f000fffce
:020320000fffcd
:020321000fffcc
:020322000fffcb
:020323000fffca
:020324000fffc9
:020325000fffc8
:020326000fffc7
:020327000fffc6
:020328000fffc5
:020329000fffc4
:02032a000fffc3
:02032b000fffc2
:02032c000fffc1
:02032d000fffc0
:02032e000fffbf
:02032f000fffbe
:020330000fffbd
:020331000fffbc
:020332000fffbb
:020333000fffba
:020334000fffb9
:020335000fffb8
:020336000fffb7
:020337000fffb6
:020338000fffb5
:020339000fffb4
:02033a000fffb3
:02033b000fffb2
:02033c000fffb1
:02033d000fffb0
:02033e000fffaf
:02033f000fffae
:020340000fffad
:020341000fffac
:020342000fffab
:020343000fffaa
:020344000fffa9
:020345000fffa8
:020346000fffa7
:020347000fffa6
:020348000fffa5
:020349000fffa4
:02034a000fffa3
:02034b000fffa2
:02034c000fffa1
:02034d000fffa0
:02034e000fff9f
:02034f000fff9e
:020350000fff9d
:020351000fff9c
:020352000fff9b
:020353000fff9a
:020354000fff99
:020355000fff98
:020356000fff97
:020357000fff96
:020358000fff95
:020359000fff94
:02035a000fff93
:02035b000fff92
:02035c000fff91
:02035d000fff90
:02035e000fff8f
:02035f000fff8e
:020360000fff8d
:020361000fff8c
:020362000fff8b
:020363000fff8a
:020364000fff89
:020365000fff88
:020366000fff87
:020367000fff86
:020368000fff85
:020369000fff84
:02036a000fff83
:02036b000fff82
:02036c000fff81
:02036d000fff80
:02036e000fff7f
:02036f000fff7e
:020370000fff7d
:020371000fff7c
:020372000fff7b
:020373000fff7a
:020374000fff79
:020375000fff78
:020376000fff77
:020377000fff76
:020378000fff75
:020379000fff74
:02037a000fff73
:02037b000fff72
:02037c000fff71
:02037d000fff70
:02037e000fff6f
:02037f000fff6e
:020380000fff6d
:020381000fff6c
:020382000fff6b
:020383000fff6a
:020384000fff69
:020385000fff68
:020386000fff67
:020387000fff66
:020388000fff65
:020389000fff64
:02038a000fff63
:02038b000fff62
:02038c000fff61
:02038d000fff60
:02038e000fff5f
:02038f000fff5e
:020390000fff5d
:020391000fff5c
:020392000fff5b
:020393000fff5a
:020394000fff59
:020395000fff58
:020396000fff57
:020397000fff56
:020398000fff55
:020399000fff54
:02039a000fff53
:02039b000fff52
:02039c000fff51
:02039d000fff50
:02039e000fff4f
:02039f000fff4e
:0203a0000fff4d
:0203a1000fff4c
:0203a2000fff4b
:0203a3000fff4a
:0203a4000fff49
:0203a5000fff48
:0203a6000fff47
:0203a7000fff46
:0203a8000fff45
:0203a9000fff44
:0203aa000fff43
:0203ab000fff42
:0203ac000fff41
:0203ad000fff40
:0203ae000fff3f
:0203af000fff3e
:0203b0000fff3d
:0203b1000fff3c
:0203b2000fff3b
:0203b3000fff3a
:0203b4000fff39
:0203b5000fff38
:0203b6000fff37
:0203b7000fff36
:0203b8000fff35
:0203b9000fff34
:0203ba000fff33
:0203bb000fff32
:0203bc000fff31
:0203bd000fff30
:0203be000fff2f
:0203bf000fff2e
:0203c0000fff2d
:0203c1000fff2c
:0203c2000fff2b
:0203c3000fff2a
:0203c4000fff29
:0203c5000fff28
:0203c6000fff27
:0203c7000fff26
:0203c8000fff25
:0203c9000fff24
:0203ca000fff23
:0203cb000fff22
:0203cc000fff21
:0203cd000fff20
:0203ce000fff1f
:0203cf000fff1e
:0203d0000fff1d
:0203d1000fff1c
:0203d2000fff1b
:0203d3000fff1a
:0203d4000fff19
:0203d5000fff18
:0203d6000fff17
:0203d7000fff16
:0203d8000fff15
:0203d9000fff14
:0203da000fff13
:0203db000fff12
:0203dc000fff11
:0203dd000fff10
:0203de000fff0f
:0203df000fff0e
:0203e0000fff0d
:0203e1000fff0c
:0203e2000fff0b
:0203e3000fff0a
:0203e4000fff09
:0203e5000fff08
:0203e6000fff07
:0203e7000fff06
:0203e8000fff05
:0203e9000fff04
:0203ea000fff03
:0203eb000fff02
:0203ec000fff01
:0203ed000fff00
:0203ee000fffff
:0203ef000ffffe
:0203f0000ffffd
:0203f1000ffffc
:0203f2000ffffb
:0203f3000ffffa
:0203f4000ffff9
:0203f5000ffff8
:0203f6000ffff7
:0203f7000ffff6
:0203f8000ffff5
:0203f9000ffff4
:0203fa000ffff3
:0203fb000ffff2
:0203fc000ffff1
:0203fd000ffff0
:0203fe000fffef
:0203ff000fffee
:020400000fffec
:020401000fffeb
:020402000fffea
:020403000fffe9
:020404000fffe8
:020405000fffe7
:020406000fffe6
:020407000fffe5
:020408000fffe4
:020409000fffe3
:02040a000fffe2
:02040b000fffe1
:02040c000fffe0
:02040d000fffdf
:02040e000fffde
:02040f000fffdd
:020410000fffdc
:020411000fffdb
:020412000fffda
:020413000fffd9
:020414000fffd8
:020415000fffd7
:020416000fffd6
:020417000fffd5
:020418000fffd4
:020419000fffd3
:02041a000fffd2
:02041b000fffd1
:02041c000fffd0
:02041d000fffcf
:02041e000fffce
:02041f000fffcd
:020420000fffcc
:020421000fffcb
:020422000fffca
:020423000fffc9
:020424000fffc8
:020425000fffc7
:020426000fffc6
:020427000fffc5
:020428000fffc4
:020429000fffc3
:02042a000fffc2
:02042b000fffc1
:02042c000fffc0
:02042d000fffbf
:02042e000fffbe
:02042f000fffbd
:020430000fffbc
:020431000fffbb
:020432000fffba
:020433000fffb9
:020434000fffb8
:020435000fffb7
:020436000fffb6
:020437000fffb5
:020438000fffb4
:020439000fffb3
:02043a000fffb2
:02043b000fffb1
:02043c000fffb0
:02043d000fffaf
:02043e000fffae
:02043f000fffad
:020440000fffac
:020441000fffab
:020442000fffaa
:020443000fffa9
:020444000fffa8
:020445000fffa7
:020446000fffa6
:020447000fffa5
:020448000fffa4
:020449000fffa3
:02044a000fffa2
:02044b000fffa1
:02044c000fffa0
:02044d000fff9f
:02044e000fff9e
:02044f000fff9d
:020450000fff9c
:020451000fff9b
:020452000fff9a
:020453000fff99
:020454000fff98
:020455000fff97
:020456000fff96
:020457000fff95
:020458000fff94
:020459000fff93
:02045a000fff92
:02045b000fff91
:02045c000fff90
:02045d000fff8f
:02045e000fff8e
:02045f000fff8d
:020460000fff8c
:020461000fff8b
:020462000fff8a
:020463000fff89
:020464000fff88
:020465000fff87
:020466000fff86
:020467000fff85
:020468000fff84
:020469000fff83
:02046a000fff82
:02046b000fff81
:02046c000fff80
:02046d000fff7f
:02046e000fff7e
:02046f000fff7d
:020470000fff7c
:020471000fff7b
:020472000fff7a
:020473000fff79
:020474000fff78
:020475000fff77
:020476000fff76
:020477000fff75
:020478000fff74
:020479000fff73
:02047a000fff72
:02047b000fff71
:02047c000fff70
:02047d000fff6f
:02047e000fff6e
:02047f000fff6d
:020480000fff6c
:020481000fff6b
:020482000fff6a
:020483000fff69
:020484000fff68
:020485000fff67
:020486000fff66
:020487000fff65
:020488000fff64
:020489000fff63
:02048a000fff62
:02048b000fff61
:02048c000fff60
:02048d000fff5f
:02048e000fff5e
:02048f000fff5d
:020490000fff5c
:020491000fff5b
:020492000fff5a
:020493000fff59
:020494000fff58
:020495000fff57
:020496000fff56
:020497000fff55
:020498000fff54
:020499000fff53
:02049a000fff52
:02049b000fff51
:02049c000fff50
:02049d000fff4f
:02049e000fff4e
:02049f000fff4d
:0204a0000fff4c
:0204a1000fff4b
:0204a2000fff4a
:0204a3000fff49
:0204a4000fff48
:0204a5000fff47
:0204a6000fff46
:0204a7000fff45
:0204a8000fff44
:0204a9000fff43
:0204aa000fff42
:0204ab000fff41
:0204ac000fff40
:0204ad000fff3f
:0204ae000fff3e
:0204af000fff3d
:0204b0000fff3c
:0204b1000fff3b
:0204b2000fff3a
:0204b3000fff39
:0204b4000fff38
:0204b5000fff37
:0204b6000fff36
:0204b7000fff35
:0204b8000fff34
:0204b9000fff33
:0204ba000fff32
:0204bb000fff31
:0204bc000fff30
:0204bd000fff2f
:0204be000fff2e
:0204bf000fff2d
:0204c0000fff2c
:0204c1000fff2b
:0204c2000fff2a
:0204c3000fff29
:0204c4000fff28
:0204c5000fff27
:0204c6000fff26
:0204c7000fff25
:0204c8000fff24
:0204c9000fff23
:0204ca000fff22
:0204cb000fff21
:0204cc000fff20
:0204cd000fff1f
:0204ce000fff1e
:0204cf000fff1d
:0204d0000fff1c
:0204d1000fff1b
:0204d2000fff1a
:0204d3000fff19
:0204d4000fff18
:0204d5000fff17
:0204d6000fff16
:0204d7000fff15
:0204d8000fff14
:0204d9000fff13
:0204da000fff12
:0204db000fff11
:0204dc000fff10
:0204dd000fff0f
:0204de000fff0e
:0204df000fff0d
:0204e0000fff0c
:0204e1000fff0b
:0204e2000fff0a
:0204e3000fff09
:0204e4000fff08
:0204e5000fff07
:0204e6000fff06
:0204e7000fff05
:0204e8000fff04
:0204e9000fff03
:0204ea000fff02
:0204eb000fff01
:0204ec000fff00
:0204ed000fffff
:0204ee000ffffe
:0204ef000ffffd
:0204f0000ffffc
:0204f1000ffffb
:0204f2000ffffa
:0204f3000ffff9
:0204f4000ffff8
:0204f5000ffff7
:0204f6000ffff6
:0204f7000ffff5
:0204f8000ffff4
:0204f9000ffff3
:0204fa000ffff2
:0204fb000ffff1
:0204fc000ffff0
:0204fd000fffef
:0204fe000fffee
:0204ff000fffed
:020500000fffeb
:020501000fffea
:020502000fffe9
:020503000fffe8
:020504000fffe7
:020505000fffe6
:020506000fffe5
:020507000fffe4
:020508000fffe3
:020509000fffe2
:02050a000fffe1
:02050b000fffe0
:02050c000fffdf
:02050d000fffde
:02050e000fffdd
:02050f000fffdc
:020510000fffdb
:020511000fffda
:020512000fffd9
:020513000fffd8
:020514000fffd7
:020515000fffd6
:020516000fffd5
:020517000fffd4
:020518000fffd3
:020519000fffd2
:02051a000fffd1
:02051b000fffd0
:02051c000fffcf
:02051d000fffce
:02051e000fffcd
:02051f000fffcc
:020520000fffcb
:020521000fffca
:020522000fffc9
:020523000fffc8
:020524000fffc7
:020525000fffc6
:020526000fffc5
:020527000fffc4
:020528000fffc3
:020529000fffc2
:02052a000fffc1
:02052b000fffc0
:02052c000fffbf
:02052d000fffbe
:02052e000fffbd
:02052f000fffbc
:020530000fffbb
:020531000fffba
:020532000fffb9
:020533000fffb8
:020534000fffb7
:020535000fffb6
:020536000fffb5
:020537000fffb4
:020538000fffb3
:020539000fffb2
:02053a000fffb1
:02053b000fffb0
:02053c000fffaf
:02053d000fffae
:02053e000fffad
:02053f000fffac
:020540000fffab
:020541000fffaa
:020542000fffa9
:020543000fffa8
:020544000fffa7
:020545000fffa6
:020546000fffa5
:020547000fffa4
:020548000fffa3
:020549000fffa2
:02054a000fffa1
:02054b000fffa0
:02054c000fff9f
:02054d000fff9e
:02054e000fff9d
:02054f000fff9c
:020550000fff9b
:020551000fff9a
:020552000fff99
:020553000fff98
:020554000fff97
:020555000fff96
:020556000fff95
:020557000fff94
:020558000fff93
:020559000fff92
:02055a000fff91
:02055b000fff90
:02055c000fff8f
:02055d000fff8e
:02055e000fff8d
:02055f000fff8c
:020560000fff8b
:020561000fff8a
:020562000fff89
:020563000fff88
:020564000fff87
:020565000fff86
:020566000fff85
:020567000fff84
:020568000fff83
:020569000fff82
:02056a000fff81
:02056b000fff80
:02056c000fff7f
:02056d000fff7e
:02056e000fff7d
:02056f000fff7c
:020570000fff7b
:020571000fff7a
:020572000fff79
:020573000fff78
:020574000fff77
:020575000fff76
:020576000fff75
:020577000fff74
:020578000fff73
:020579000fff72
:02057a000fff71
:02057b000fff70
:02057c000fff6f
:02057d000fff6e
:02057e000fff6d
:02057f000fff6c
:020580000fff6b
:020581000fff6a
:020582000fff69
:020583000fff68
:020584000fff67
:020585000fff66
:020586000fff65
:020587000fff64
:020588000fff63
:020589000fff62
:02058a000fff61
:02058b000fff60
:02058c000fff5f
:02058d000fff5e
:02058e000fff5d
:02058f000fff5c
:020590000fff5b
:020591000fff5a
:020592000fff59
:020593000fff58
:020594000fff57
:020595000fff56
:020596000fff55
:020597000fff54
:020598000fff53
:020599000fff52
:02059a000fff51
:02059b000fff50
:02059c000fff4f
:02059d000fff4e
:02059e000fff4d
:02059f000fff4c
:0205a0000fff4b
:0205a1000fff4a
:0205a2000fff49
:0205a3000fff48
:0205a4000fff47
:0205a5000fff46
:0205a6000fff45
:0205a7000fff44
:0205a8000fff43
:0205a9000fff42
:0205aa000fff41
:0205ab000fff40
:0205ac000fff3f
:0205ad000fff3e
:0205ae000fff3d
:0205af000fff3c
:0205b0000fff3b
:0205b1000fff3a
:0205b2000fff39
:0205b3000fff38
:0205b4000fff37
:0205b5000fff36
:0205b6000fff35
:0205b7000fff34
:0205b8000fff33
:0205b9000fff32
:0205ba000fff31
:0205bb000fff30
:0205bc000fff2f
:0205bd000fff2e
:0205be000fff2d
:0205bf000fff2c
:0205c0000fff2b
:0205c1000fff2a
:0205c2000fff29
:0205c3000fff28
:0205c4000fff27
:0205c5000fff26
:0205c6000fff25
:0205c7000fff24
:0205c8000fff23
:0205c9000fff22
:0205ca000fff21
:0205cb000fff20
:0205cc000fff1f
:0205cd000fff1e
:0205ce000fff1d
:0205cf000fff1c
:0205d0000fff1b
:0205d1000fff1a
:0205d2000fff19
:0205d3000fff18
:0205d4000fff17
:0205d5000fff16
:0205d6000fff15
:0205d7000fff14
:0205d8000fff13
:0205d9000fff12
:0205da000fff11
:0205db000fff10
:0205dc000fff0f
:0205dd000fff0e
:0205de000fff0d
:0205df000fff0c
:0205e0000fff0b
:0205e1000fff0a
:0205e2000fff09
:0205e3000fff08
:0205e4000fff07
:0205e5000fff06
:0205e6000fff05
:0205e7000fff04
:0205e8000fff03
:0205e9000fff02
:0205ea000fff01
:0205eb000fff00
:0205ec000fffff
:0205ed000ffffe
:0205ee000ffffd
:0205ef000ffffc
:0205f0000ffffb
:0205f1000ffffa
:0205f2000ffff9
:0205f3000ffff8
:0205f4000ffff7
:0205f5000ffff6
:0205f6000ffff5
:0205f7000ffff4
:0205f8000ffff3
:0205f9000ffff2
:0205fa000ffff1
:0205fb000ffff0
:0205fc000fffef
:0205fd000fffee
:0205fe000fffed
:0205ff000fffec
:020600000fffea
:020601000fffe9
:020602000fffe8
:020603000fffe7
:020604000fffe6
:020605000fffe5
:020606000fffe4
:020607000fffe3
:020608000fffe2
:020609000fffe1
:02060a000fffe0
:02060b000fffdf
:02060c000fffde
:02060d000fffdd
:02060e000fffdc
:02060f000fffdb
:020610000fffda
:020611000fffd9
:020612000fffd8
:020613000fffd7
:020614000fffd6
:020615000fffd5
:020616000fffd4
:020617000fffd3
:020618000fffd2
:020619000fffd1
:02061a000fffd0
:02061b000fffcf
:02061c000fffce
:02061d000fffcd
:02061e000fffcc
:02061f000fffcb
:020620000fffca
:020621000fffc9
:020622000fffc8
:020623000fffc7
:020624000fffc6
:020625000fffc5
:020626000fffc4
:020627000fffc3
:020628000fffc2
:020629000fffc1
:02062a000fffc0
:02062b000fffbf
:02062c000fffbe
:02062d000fffbd
:02062e000fffbc
:02062f000fffbb
:020630000fffba
:020631000fffb9
:020632000fffb8
:020633000fffb7
:020634000fffb6
:020635000fffb5
:020636000fffb4
:020637000fffb3
:020638000fffb2
:020639000fffb1
:02063a000fffb0
:02063b000fffaf
:02063c000fffae
:02063d000fffad
:02063e000fffac
:02063f000fffab
:020640000fffaa
:020641000fffa9
:020642000fffa8
:020643000fffa7
:020644000fffa6
:020645000fffa5
:020646000fffa4
:020647000fffa3
:020648000fffa2
:020649000fffa1
:02064a000fffa0
:02064b000fff9f
:02064c000fff9e
:02064d000fff9d
:02064e000fff9c
:02064f000fff9b
:020650000fff9a
:020651000fff99
:020652000fff98
:020653000fff97
:020654000fff96
:020655000fff95
:020656000fff94
:020657000fff93
:020658000fff92
:020659000fff91
:02065a000fff90
:02065b000fff8f
:02065c000fff8e
:02065d000fff8d
:02065e000fff8c
:02065f000fff8b
:020660000fff8a
:020661000fff89
:020662000fff88
:020663000fff87
:020664000fff86
:020665000fff85
:020666000fff84
:020667000fff83
:020668000fff82
:020669000fff81
:02066a000fff80
:02066b000fff7f
:02066c000fff7e
:02066d000fff7d
:02066e000fff7c
:02066f000fff7b
:020670000fff7a
:020671000fff79
:020672000fff78
:020673000fff77
:020674000fff76
:020675000fff75
:020676000fff74
:020677000fff73
:020678000fff72
:020679000fff71
:02067a000fff70
:02067b000fff6f
:02067c000fff6e
:02067d000fff6d
:02067e000fff6c
:02067f000fff6b
:020680000fff6a
:020681000fff69
:020682000fff68
:020683000fff67
:020684000fff66
:020685000fff65
:020686000fff64
:020687000fff63
:020688000fff62
:020689000fff61
:02068a000fff60
:02068b000fff5f
:02068c000fff5e
:02068d000fff5d
:02068e000fff5c
:02068f000fff5b
:020690000fff5a
:020691000fff59
:020692000fff58
:020693000fff57
:020694000fff56
:020695000fff55
:020696000fff54
:020697000fff53
:020698000fff52
:020699000fff51
:02069a000fff50
:02069b000fff4f
:02069c000fff4e
:02069d000fff4d
:02069e000fff4c
:02069f000fff4b
:0206a0000fff4a
:0206a1000fff49
:0206a2000fff48
:0206a3000fff47
:0206a4000fff46
:0206a5000fff45
:0206a6000fff44
:0206a7000fff43
:0206a8000fff42
:0206a9000fff41
:0206aa000fff40
:0206ab000fff3f
:0206ac000fff3e
:0206ad000fff3d
:0206ae000fff3c
:0206af000fff3b
:0206b0000fff3a
:0206b1000fff39
:0206b2000fff38
:0206b3000fff37
:0206b4000fff36
:0206b5000fff35
:0206b6000fff34
:0206b7000fff33
:0206b8000fff32
:0206b9000fff31
:0206ba000fff30
:0206bb000fff2f
:0206bc000fff2e
:0206bd000fff2d
:0206be000fff2c
:0206bf000fff2b
:0206c0000fff2a
:0206c1000fff29
:0206c2000fff28
:0206c3000fff27
:0206c4000fff26
:0206c5000fff25
:0206c6000fff24
:0206c7000fff23
:0206c8000fff22
:0206c9000fff21
:0206ca000fff20
:0206cb000fff1f
:0206cc000fff1e
:0206cd000fff1d
:0206ce000fff1c
:0206cf000fff1b
:0206d0000fff1a
:0206d1000fff19
:0206d2000fff18
:0206d3000fff17
:0206d4000fff16
:0206d5000fff15
:0206d6000fff14
:0206d7000fff13
:0206d8000fff12
:0206d9000fff11
:0206da000fff10
:0206db000fff0f
:0206dc000fff0e
:0206dd000fff0d
:0206de000fff0c
:0206df000fff0b
:0206e0000fff0a
:0206e1000fff09
:0206e2000fff08
:0206e3000fff07
:0206e4000fff06
:0206e5000fff05
:0206e6000fff04
:0206e7000fff03
:0206e8000fff02
:0206e9000fff01
:0206ea000fff00
:0206eb000fffff
:0206ec000ffffe
:0206ed000ffffd
:0206ee000ffffc
:0206ef000ffffb
:0206f0000ffffa
:0206f1000ffff9
:0206f2000ffff8
:0206f3000ffff7
:0206f4000ffff6
:0206f5000ffff5
:0206f6000ffff4
:0206f7000ffff3
:0206f8000ffff2
:0206f9000ffff1
:0206fa000ffff0
:0206fb000fffef
:0206fc000fffee
:0206fd000fffed
:0206fe000fffec
:0206ff000fffeb
:020700000fffe9
:020701000fffe8
:020702000fffe7
:020703000fffe6
:020704000fffe5
:020705000fffe4
:020706000fffe3
:020707000fffe2
:020708000fffe1
:020709000fffe0
:02070a000fffdf
:02070b000fffde
:02070c000fffdd
:02070d000fffdc
:02070e000fffdb
:02070f000fffda
:020710000fffd9
:020711000fffd8
:020712000fffd7
:020713000fffd6
:020714000fffd5
:020715000fffd4
:020716000fffd3
:020717000fffd2
:020718000fffd1
:020719000fffd0
:02071a000fffcf
:02071b000fffce
:02071c000fffcd
:02071d000fffcc
:02071e000fffcb
:02071f000fffca
:020720000fffc9
:020721000fffc8
:020722000fffc7
:020723000fffc6
:020724000fffc5
:020725000fffc4
:020726000fffc3
:020727000fffc2
:020728000fffc1
:020729000fffc0
:02072a000fffbf
:02072b000fffbe
:02072c000fffbd
:02072d000fffbc
:02072e000fffbb
:02072f000fffba
:020730000fffb9
:020731000fffb8
:020732000fffb7
:020733000fffb6
:020734000fffb5
:020735000fffb4
:020736000fffb3
:020737000fffb2
:020738000fffb1
:020739000fffb0
:02073a000fffaf
:02073b000fffae
:02073c000fffad
:02073d000fffac
:02073e000fffab
:02073f000fffaa
:020740000fffa9
:020741000fffa8
:020742000fffa7
:020743000fffa6
:020744000fffa5
:020745000fffa4
:020746000fffa3
:020747000fffa2
:020748000fffa1
:020749000fffa0
:02074a000fff9f
:02074b000fff9e
:02074c000fff9d
:02074d000fff9c
:02074e000fff9b
:02074f000fff9a
:020750000fff99
:020751000fff98
:020752000fff97
:020753000fff96
:020754000fff95
:020755000fff94
:020756000fff93
:020757000fff92
:020758000fff91
:020759000fff90
:02075a000fff8f
:02075b000fff8e
:02075c000fff8d
:02075d000fff8c
:02075e000fff8b
:02075f000fff8a
:020760000fff89
:020761000fff88
:020762000fff87
:020763000fff86
:020764000fff85
:020765000fff84
:020766000fff83
:020767000fff82
:020768000fff81
:020769000fff80
:02076a000fff7f
:02076b000fff7e
:02076c000fff7d
:02076d000fff7c
:02076e000fff7b
:02076f000fff7a
:020770000fff79
:020771000fff78
:020772000fff77
:020773000fff76
:020774000fff75
:020775000fff74
:020776000fff73
:020777000fff72
:020778000fff71
:020779000fff70
:02077a000fff6f
:02077b000fff6e
:02077c000fff6d
:02077d000fff6c
:02077e000fff6b
:02077f000fff6a
:020780000fff69
:020781000fff68
:020782000fff67
:020783000fff66
:020784000fff65
:020785000fff64
:020786000fff63
:020787000fff62
:020788000fff61
:020789000fff60
:02078a000fff5f
:02078b000fff5e
:02078c000fff5d
:02078d000fff5c
:02078e000fff5b
:02078f000fff5a
:020790000fff59
:020791000fff58
:020792000fff57
:020793000fff56
:020794000fff55
:020795000fff54
:020796000fff53
:020797000fff52
:020798000fff51
:020799000fff50
:02079a000fff4f
:02079b000fff4e
:02079c000fff4d
:02079d000fff4c
:02079e000fff4b
:02079f000fff4a
:0207a0000fff49
:0207a1000fff48
:0207a2000fff47
:0207a3000fff46
:0207a4000fff45
:0207a5000fff44
:0207a6000fff43
:0207a7000fff42
:0207a8000fff41
:0207a9000fff40
:0207aa000fff3f
:0207ab000fff3e
:0207ac000fff3d
:0207ad000fff3c
:0207ae000fff3b
:0207af000fff3a
:0207b0000fff39
:0207b1000fff38
:0207b2000fff37
:0207b3000fff36
:0207b4000fff35
:0207b5000fff34
:0207b6000fff33
:0207b7000fff32
:0207b8000fff31
:0207b9000fff30
:0207ba000fff2f
:0207bb000fff2e
:0207bc000fff2d
:0207bd000fff2c
:0207be000fff2b
:0207bf000fff2a
:0207c0000fff29
:0207c1000fff28
:0207c2000fff27
:0207c3000fff26
:0207c4000fff25
:0207c5000fff24
:0207c6000fff23
:0207c7000fff22
:0207c8000fff21
:0207c9000fff20
:0207ca000fff1f
:0207cb000fff1e
:0207cc000fff1d
:0207cd000fff1c
:0207ce000fff1b
:0207cf000fff1a
:0207d0000fff19
:0207d1000fff18
:0207d2000fff17
:0207d3000fff16
:0207d4000fff15
:0207d5000fff14
:0207d6000fff13
:0207d7000fff12
:0207d8000fff11
:0207d9000fff10
:0207da000fff0f
:0207db000fff0e
:0207dc000fff0d
:0207dd000fff0c
:0207de000fff0b
:0207df000fff0a
:0207e0000fff09
:0207e1000fff08
:0207e2000fff07
:0207e3000fff06
:0207e4000fff05
:0207e5000fff04
:0207e6000fff03
:0207e7000fff02
:0207e8000fff01
:0207e9000fff00
:0207ea000fffff
:0207eb000ffffe
:0207ec000ffffd
:0207ed000ffffc
:0207ee000ffffb
:0207ef000ffffa
:0207f0000ffff9
:0207f1000ffff8
:0207f2000ffff7
:0207f3000ffff6
:0207f4000ffff5
:0207f5000ffff4
:0207f6000ffff3
:0207f7000ffff2
:0207f8000ffff1
:0207f9000ffff0
:0207fa000fffef
:0207fb000fffee
:0207fc000fffed
:0207fd000fffec
:0207fe000fffeb
:0207ff000fffea
:020800000fffe8
:020801000fffe7
:020802000fffe6
:020803000fffe5
:020804000fffe4
:020805000fffe3
:020806000fffe2
:020807000fffe1
:020808000fffe0
:020809000fffdf
:02080a000fffde
:02080b000fffdd
:02080c000fffdc
:02080d000fffdb
:02080e000fffda
:02080f000fffd9
:020810000fffd8
:020811000fffd7
:020812000fffd6
:020813000fffd5
:020814000fffd4
:020815000fffd3
:020816000fffd2
:020817000fffd1
:020818000fffd0
:020819000fffcf
:02081a000fffce
:02081b000fffcd
:02081c000fffcc
:02081d000fffcb
:02081e000fffca
:02081f000fffc9
:020820000fffc8
:020821000fffc7
:020822000fffc6
:020823000fffc5
:020824000fffc4
:020825000fffc3
:020826000fffc2
:020827000fffc1
:020828000fffc0
:020829000fffbf
:02082a000fffbe
:02082b000fffbd
:02082c000fffbc
:02082d000fffbb
:02082e000fffba
:02082f000fffb9
:020830000fffb8
:020831000fffb7
:020832000fffb6
:020833000fffb5
:020834000fffb4
:020835000fffb3
:020836000fffb2
:020837000fffb1
:020838000fffb0
:020839000fffaf
:02083a000fffae
:02083b000fffad
:02083c000fffac
:02083d000fffab
:02083e000fffaa
:02083f000fffa9
:020840000fffa8
:020841000fffa7
:020842000fffa6
:020843000fffa5
:020844000fffa4
:020845000fffa3
:020846000fffa2
:020847000fffa1
:020848000fffa0
:020849000fff9f
:02084a000fff9e
:02084b000fff9d
:02084c000fff9c
:02084d000fff9b
:02084e000fff9a
:02084f000fff99
:020850000fff98
:020851000fff97
:020852000fff96
:020853000fff95
:020854000fff94
:020855000fff93
:020856000fff92
:020857000fff91
:020858000fff90
:020859000fff8f
:02085a000fff8e
:02085b000fff8d
:02085c000fff8c
:02085d000fff8b
:02085e000fff8a
:02085f000fff89
:020860000fff88
:020861000fff87
:020862000fff86
:020863000fff85
:020864000fff84
:020865000fff83
:020866000fff82
:020867000fff81
:020868000fff80
:020869000fff7f
:02086a000fff7e
:02086b000fff7d
:02086c000fff7c
:02086d000fff7b
:02086e000fff7a
:02086f000fff79
:020870000fff78
:020871000fff77
:020872000fff76
:020873000fff75
:020874000fff74
:020875000fff73
:020876000fff72
:020877000fff71
:020878000fff70
:020879000fff6f
:02087a000fff6e
:02087b000fff6d
:02087c000fff6c
:02087d000fff6b
:02087e000fff6a
:02087f000fff69
:020880000fff68
:020881000fff67
:020882000fff66
:020883000fff65
:020884000fff64
:020885000fff63
:020886000fff62
:020887000fff61
:020888000fff60
:020889000fff5f
:02088a000fff5e
:02088b000fff5d
:02088c000fff5c
:02088d000fff5b
:02088e000fff5a
:02088f000fff59
:020890000fff58
:020891000fff57
:020892000fff56
:020893000fff55
:020894000fff54
:020895000fff53
:020896000fff52
:020897000fff51
:020898000fff50
:020899000fff4f
:02089a000fff4e
:02089b000fff4d
:02089c000fff4c
:02089d000fff4b
:02089e000fff4a
:02089f000fff49
:0208a0000fff48
:0208a1000fff47
:0208a2000fff46
:0208a3000fff45
:0208a4000fff44
:0208a5000fff43
:0208a6000fff42
:0208a7000fff41
:0208a8000fff40
:0208a9000fff3f
:0208aa000fff3e
:0208ab000fff3d
:0208ac000fff3c
:0208ad000fff3b
:0208ae000fff3a
:0208af000fff39
:0208b0000fff38
:0208b1000fff37
:0208b2000fff36
:0208b3000fff35
:0208b4000fff34
:0208b5000fff33
:0208b6000fff32
:0208b7000fff31
:0208b8000fff30
:0208b9000fff2f
:0208ba000fff2e
:0208bb000fff2d
:0208bc000fff2c
:0208bd000fff2b
:0208be000fff2a
:0208bf000fff29
:0208c0000fff28
:0208c1000fff27
:0208c2000fff26
:0208c3000fff25
:0208c4000fff24
:0208c5000fff23
:0208c6000fff22
:0208c7000fff21
:0208c8000fff20
:0208c9000fff1f
:0208ca000fff1e
:0208cb000fff1d
:0208cc000fff1c
:0208cd000fff1b
:0208ce000fff1a
:0208cf000fff19
:0208d0000fff18
:0208d1000fff17
:0208d2000fff16
:0208d3000fff15
:0208d4000fff14
:0208d5000fff13
:0208d6000fff12
:0208d7000fff11
:0208d8000fff10
:0208d9000fff0f
:0208da000fff0e
:0208db000fff0d
:0208dc000fff0c
:0208dd000fff0b
:0208de000fff0a
:0208df000fff09
:0208e0000fff08
:0208e1000fff07
:0208e2000fff06
:0208e3000fff05
:0208e4000fff04
:0208e5000fff03
:0208e6000fff02
:0208e7000fff01
:0208e8000fff00
:0208e9000fffff
:0208ea000ffffe
:0208eb000ffffd
:0208ec000ffffc
:0208ed000ffffb
:0208ee000ffffa
:0208ef000ffff9
:0208f0000ffff8
:0208f1000ffff7
:0208f2000ffff6
:0208f3000ffff5
:0208f4000ffff4
:0208f5000ffff3
:0208f6000ffff2
:0208f7000ffff1
:0208f8000ffff0
:0208f9000fffef
:0208fa000fffee
:0208fb000fffed
:0208fc000fffec
:0208fd000fffeb
:0208fe000fffea
:0208ff000fffe9
:020900000fffe7
:020901000fffe6
:020902000fffe5
:020903000fffe4
:020904000fffe3
:020905000fffe2
:020906000fffe1
:020907000fffe0
:020908000fffdf
:020909000fffde
:02090a000fffdd
:02090b000fffdc
:02090c000fffdb
:02090d000fffda
:02090e000fffd9
:02090f000fffd8
:020910000fffd7
:020911000fffd6
:020912000fffd5
:020913000fffd4
:020914000fffd3
:020915000fffd2
:020916000fffd1
:020917000fffd0
:020918000fffcf
:020919000fffce
:02091a000fffcd
:02091b000fffcc
:02091c000fffcb
:02091d000fffca
:02091e000fffc9
:02091f000fffc8
:020920000fffc7
:020921000fffc6
:020922000fffc5
:020923000fffc4
:020924000fffc3
:020925000fffc2
:020926000fffc1
:020927000fffc0
:020928000fffbf
:020929000fffbe
:02092a000fffbd
:02092b000fffbc
:02092c000fffbb
:02092d000fffba
:02092e000fffb9
:02092f000fffb8
:020930000fffb7
:020931000fffb6
:020932000fffb5
:020933000fffb4
:020934000fffb3
:020935000fffb2
:020936000fffb1
:020937000fffb0
:020938000fffaf
:020939000fffae
:02093a000fffad
:02093b000fffac
:02093c000fffab
:02093d000fffaa
:02093e000fffa9
:02093f000fffa8
:020940000fffa7
:020941000fffa6
:020942000fffa5
:020943000fffa4
:020944000fffa3
:020945000fffa2
:020946000fffa1
:020947000fffa0
:020948000fff9f
:020949000fff9e
:02094a000fff9d
:02094b000fff9c
:02094c000fff9b
:02094d000fff9a
:02094e000fff99
:02094f000fff98
:020950000fff97
:020951000fff96
:020952000fff95
:020953000fff94
:020954000fff93
:020955000fff92
:020956000fff91
:020957000fff90
:020958000fff8f
:020959000fff8e
:02095a000fff8d
:02095b000fff8c
:02095c000fff8b
:02095d000fff8a
:02095e000fff89
:02095f000fff88
:020960000fff87
:020961000fff86
:020962000fff85
:020963000fff84
:020964000fff83
:020965000fff82
:020966000fff81
:020967000fff80
:020968000fff7f
:020969000fff7e
:02096a000fff7d
:02096b000fff7c
:02096c000fff7b
:02096d000fff7a
:02096e000fff79
:02096f000fff78
:020970000fff77
:020971000fff76
:020972000fff75
:020973000fff74
:020974000fff73
:020975000fff72
:020976000fff71
:020977000fff70
:020978000fff6f
:020979000fff6e
:02097a000fff6d
:02097b000fff6c
:02097c000fff6b
:02097d000fff6a
:02097e000fff69
:02097f000fff68
:020980000fff67
:020981000fff66
:020982000fff65
:020983000fff64
:020984000fff63
:020985000fff62
:020986000fff61
:020987000fff60
:020988000fff5f
:020989000fff5e
:02098a000fff5d
:02098b000fff5c
:02098c000fff5b
:02098d000fff5a
:02098e000fff59
:02098f000fff58
:020990000fff57
:020991000fff56
:020992000fff55
:020993000fff54
:020994000fff53
:020995000fff52
:020996000fff51
:020997000fff50
:020998000fff4f
:020999000fff4e
:02099a000fff4d
:02099b000fff4c
:02099c000fff4b
:02099d000fff4a
:02099e000fff49
:02099f000fff48
:0209a0000fff47
:0209a1000fff46
:0209a2000fff45
:0209a3000fff44
:0209a4000fff43
:0209a5000fff42
:0209a6000fff41
:0209a7000fff40
:0209a8000fff3f
:0209a9000fff3e
:0209aa000fff3d
:0209ab000fff3c
:0209ac000fff3b
:0209ad000fff3a
:0209ae000fff39
:0209af000fff38
:0209b0000fff37
:0209b1000fff36
:0209b2000fff35
:0209b3000fff34
:0209b4000fff33
:0209b5000fff32
:0209b6000fff31
:0209b7000fff30
:0209b8000fff2f
:0209b9000fff2e
:0209ba000fff2d
:0209bb000fff2c
:0209bc000fff2b
:0209bd000fff2a
:0209be000fff29
:0209bf000fff28
:0209c0000fff27
:0209c1000fff26
:0209c2000fff25
:0209c3000fff24
:0209c4000fff23
:0209c5000fff22
:0209c6000fff21
:0209c7000fff20
:0209c8000fff1f
:0209c9000fff1e
:0209ca000fff1d
:0209cb000fff1c
:0209cc000fff1b
:0209cd000fff1a
:0209ce000fff19
:0209cf000fff18
:0209d0000fff17
:0209d1000fff16
:0209d2000fff15
:0209d3000fff14
:0209d4000fff13
:0209d5000fff12
:0209d6000fff11
:0209d7000fff10
:0209d8000fff0f
:0209d9000fff0e
:0209da000fff0d
:0209db000fff0c
:0209dc000fff0b
:0209dd000fff0a
:0209de000fff09
:0209df000fff08
:0209e0000fff07
:0209e1000fff06
:0209e2000fff05
:0209e3000fff04
:0209e4000fff03
:0209e5000fff02
:0209e6000fff01
:0209e7000fff00
:0209e8000fffff
:0209e9000ffffe
:0209ea000ffffd
:0209eb000ffffc
:0209ec000ffffb
:0209ed000ffffa
:0209ee000ffff9
:0209ef000ffff8
:0209f0000ffff7
:0209f1000ffff6
:0209f2000ffff5
:0209f3000ffff4
:0209f4000ffff3
:0209f5000ffff2
:0209f6000ffff1
:0209f7000ffff0
:0209f8000fffef
:0209f9000fffee
:0209fa000fffed
:0209fb000fffec
:0209fc000fffeb
:0209fd000fffea
:0209fe000fffe9
:0209ff000fffe8
:020a00000fffe6
:020a01000fffe5
:020a02000fffe4
:020a03000fffe3
:020a04000fffe2
:020a05000fffe1
:020a06000fffe0
:020a07000fffdf
:020a08000fffde
:020a09000fffdd
:020a0a000fffdc
:020a0b000fffdb
:020a0c000fffda
:020a0d000fffd9
:020a0e000fffd8
:020a0f000fffd7
:020a10000fffd6
:020a11000fffd5
:020a12000fffd4
:020a13000fffd3
:020a14000fffd2
:020a15000fffd1
:020a16000fffd0
:020a17000fffcf
:020a18000fffce
:020a19000fffcd
:020a1a000fffcc
:020a1b000fffcb
:020a1c000fffca
:020a1d000fffc9
:020a1e000fffc8
:020a1f000fffc7
:020a20000fffc6
:020a21000fffc5
:020a22000fffc4
:020a23000fffc3
:020a24000fffc2
:020a25000fffc1
:020a26000fffc0
:020a27000fffbf
:020a28000fffbe
:020a29000fffbd
:020a2a000fffbc
:020a2b000fffbb
:020a2c000fffba
:020a2d000fffb9
:020a2e000fffb8
:020a2f000fffb7
:020a30000fffb6
:020a31000fffb5
:020a32000fffb4
:020a33000fffb3
:020a34000fffb2
:020a35000fffb1
:020a36000fffb0
:020a37000fffaf
:020a38000fffae
:020a39000fffad
:020a3a000fffac
:020a3b000fffab
:020a3c000fffaa
:020a3d000fffa9
:020a3e000fffa8
:020a3f000fffa7
:020a40000fffa6
:020a41000fffa5
:020a42000fffa4
:020a43000fffa3
:020a44000fffa2
:020a45000fffa1
:020a46000fffa0
:020a47000fff9f
:020a48000fff9e
:020a49000fff9d
:020a4a000fff9c
:020a4b000fff9b
:020a4c000fff9a
:020a4d000fff99
:020a4e000fff98
:020a4f000fff97
:020a50000fff96
:020a51000fff95
:020a52000fff94
:020a53000fff93
:020a54000fff92
:020a55000fff91
:020a56000fff90
:020a57000fff8f
:020a58000fff8e
:020a59000fff8d
:020a5a000fff8c
:020a5b000fff8b
:020a5c000fff8a
:020a5d000fff89
:020a5e000fff88
:020a5f000fff87
:020a60000fff86
:020a61000fff85
:020a62000fff84
:020a63000fff83
:020a64000fff82
:020a65000fff81
:020a66000fff80
:020a67000fff7f
:020a68000fff7e
:020a69000fff7d
:020a6a000fff7c
:020a6b000fff7b
:020a6c000fff7a
:020a6d000fff79
:020a6e000fff78
:020a6f000fff77
:020a70000fff76
:020a71000fff75
:020a72000fff74
:020a73000fff73
:020a74000fff72
:020a75000fff71
:020a76000fff70
:020a77000fff6f
:020a78000fff6e
:020a79000fff6d
:020a7a000fff6c
:020a7b000fff6b
:020a7c000fff6a
:020a7d000fff69
:020a7e000fff68
:020a7f000fff67
:020a80000fff66
:020a81000fff65
:020a82000fff64
:020a83000fff63
:020a84000fff62
:020a85000fff61
:020a86000fff60
:020a87000fff5f
:020a88000fff5e
:020a89000fff5d
:020a8a000fff5c
:020a8b000fff5b
:020a8c000fff5a
:020a8d000fff59
:020a8e000fff58
:020a8f000fff57
:020a90000fff56
:020a91000fff55
:020a92000fff54
:020a93000fff53
:020a94000fff52
:020a95000fff51
:020a96000fff50
:020a97000fff4f
:020a98000fff4e
:020a99000fff4d
:020a9a000fff4c
:020a9b000fff4b
:020a9c000fff4a
:020a9d000fff49
:020a9e000fff48
:020a9f000fff47
:020aa0000fff46
:020aa1000fff45
:020aa2000fff44
:020aa3000fff43
:020aa4000fff42
:020aa5000fff41
:020aa6000fff40
:020aa7000fff3f
:020aa8000fff3e
:020aa9000fff3d
:020aaa000fff3c
:020aab000fff3b
:020aac000fff3a
:020aad000fff39
:020aae000fff38
:020aaf000fff37
:020ab0000fff36
:020ab1000fff35
:020ab2000fff34
:020ab3000fff33
:020ab4000fff32
:020ab5000fff31
:020ab6000fff30
:020ab7000fff2f
:020ab8000fff2e
:020ab9000fff2d
:020aba000fff2c
:020abb000fff2b
:020abc000fff2a
:020abd000fff29
:020abe000fff28
:020abf000fff27
:020ac0000fff26
:020ac1000fff25
:020ac2000fff24
:020ac3000fff23
:020ac4000fff22
:020ac5000fff21
:020ac6000fff20
:020ac7000fff1f
:020ac8000fff1e
:020ac9000fff1d
:020aca000fff1c
:020acb000fff1b
:020acc000fff1a
:020acd000fff19
:020ace000fff18
:020acf000fff17
:020ad0000fff16
:020ad1000fff15
:020ad2000fff14
:020ad3000fff13
:020ad4000fff12
:020ad5000fff11
:020ad6000fff10
:020ad7000fff0f
:020ad8000fff0e
:020ad9000fff0d
:020ada000fff0c
:020adb000fff0b
:020adc000fff0a
:020add000fff09
:020ade000fff08
:020adf000fff07
:020ae0000fff06
:020ae1000fff05
:020ae2000fff04
:020ae3000fff03
:020ae4000fff02
:020ae5000fff01
:020ae6000fff00
:020ae7000fffff
:020ae8000ffffe
:020ae9000ffffd
:020aea000ffffc
:020aeb000ffffb
:020aec000ffffa
:020aed000ffff9
:020aee000ffff8
:020aef000ffff7
:020af0000ffff6
:020af1000ffff5
:020af2000ffff4
:020af3000ffff3
:020af4000ffff2
:020af5000ffff1
:020af6000ffff0
:020af7000fffef
:020af8000fffee
:020af9000fffed
:020afa000fffec
:020afb000fffeb
:020afc000fffea
:020afd000fffe9
:020afe000fffe8
:020aff000fffe7
:020b00000fffe5
:020b01000fffe4
:020b02000fffe3
:020b03000fffe2
:020b04000fffe1
:020b05000fffe0
:020b06000fffdf
:020b07000fffde
:020b08000fffdd
:020b09000fffdc
:020b0a000fffdb
:020b0b000fffda
:020b0c000fffd9
:020b0d000fffd8
:020b0e000fffd7
:020b0f000fffd6
:020b10000fffd5
:020b11000fffd4
:020b12000fffd3
:020b13000fffd2
:020b14000fffd1
:020b15000fffd0
:020b16000fffcf
:020b17000fffce
:020b18000fffcd
:020b19000fffcc
:020b1a000fffcb
:020b1b000fffca
:020b1c000fffc9
:020b1d000fffc8
:020b1e000fffc7
:020b1f000fffc6
:020b20000fffc5
:020b21000fffc4
:020b22000fffc3
:020b23000fffc2
:020b24000fffc1
:020b25000fffc0
:020b26000fffbf
:020b27000fffbe
:020b28000fffbd
:020b29000fffbc
:020b2a000fffbb
:020b2b000fffba
:020b2c000fffb9
:020b2d000fffb8
:020b2e000fffb7
:020b2f000fffb6
:020b30000fffb5
:020b31000fffb4
:020b32000fffb3
:020b33000fffb2
:020b34000fffb1
:020b35000fffb0
:020b36000fffaf
:020b37000fffae
:020b38000fffad
:020b39000fffac
:020b3a000fffab
:020b3b000fffaa
:020b3c000fffa9
:020b3d000fffa8
:020b3e000fffa7
:020b3f000fffa6
:020b40000fffa5
:020b41000fffa4
:020b42000fffa3
:020b43000fffa2
:020b44000fffa1
:020b45000fffa0
:020b46000fff9f
:020b47000fff9e
:020b48000fff9d
:020b49000fff9c
:020b4a000fff9b
:020b4b000fff9a
:020b4c000fff99
:020b4d000fff98
:020b4e000fff97
:020b4f000fff96
:020b50000fff95
:020b51000fff94
:020b52000fff93
:020b53000fff92
:020b54000fff91
:020b55000fff90
:020b56000fff8f
:020b57000fff8e
:020b58000fff8d
:020b59000fff8c
:020b5a000fff8b
:020b5b000fff8a
:020b5c000fff89
:020b5d000fff88
:020b5e000fff87
:020b5f000fff86
:020b60000fff85
:020b61000fff84
:020b62000fff83
:020b63000fff82
:020b64000fff81
:020b65000fff80
:020b66000fff7f
:020b67000fff7e
:020b68000fff7d
:020b69000fff7c
:020b6a000fff7b
:020b6b000fff7a
:020b6c000fff79
:020b6d000fff78
:020b6e000fff77
:020b6f000fff76
:020b70000fff75
:020b71000fff74
:020b72000fff73
:020b73000fff72
:020b74000fff71
:020b75000fff70
:020b76000fff6f
:020b77000fff6e
:020b78000fff6d
:020b79000fff6c
:020b7a000fff6b
:020b7b000fff6a
:020b7c000fff69
:020b7d000fff68
:020b7e000fff67
:020b7f000fff66
:020b80000fff65
:020b81000fff64
:020b82000fff63
:020b83000fff62
:020b84000fff61
:020b85000fff60
:020b86000fff5f
:020b87000fff5e
:020b88000fff5d
:020b89000fff5c
:020b8a000fff5b
:020b8b000fff5a
:020b8c000fff59
:020b8d000fff58
:020b8e000fff57
:020b8f000fff56
:020b90000fff55
:020b91000fff54
:020b92000fff53
:020b93000fff52
:020b94000fff51
:020b95000fff50
:020b96000fff4f
:020b97000fff4e
:020b98000fff4d
:020b99000fff4c
:020b9a000fff4b
:020b9b000fff4a
:020b9c000fff49
:020b9d000fff48
:020b9e000fff47
:020b9f000fff46
:020ba0000fff45
:020ba1000fff44
:020ba2000fff43
:020ba3000fff42
:020ba4000fff41
:020ba5000fff40
:020ba6000fff3f
:020ba7000fff3e
:020ba8000fff3d
:020ba9000fff3c
:020baa000fff3b
:020bab000fff3a
:020bac000fff39
:020bad000fff38
:020bae000fff37
:020baf000fff36
:020bb0000fff35
:020bb1000fff34
:020bb2000fff33
:020bb3000fff32
:020bb4000fff31
:020bb5000fff30
:020bb6000fff2f
:020bb7000fff2e
:020bb8000fff2d
:020bb9000fff2c
:020bba000fff2b
:020bbb000fff2a
:020bbc000fff29
:020bbd000fff28
:020bbe000fff27
:020bbf000fff26
:020bc0000fff25
:020bc1000fff24
:020bc2000fff23
:020bc3000fff22
:020bc4000fff21
:020bc5000fff20
:020bc6000fff1f
:020bc7000fff1e
:020bc8000fff1d
:020bc9000fff1c
:020bca000fff1b
:020bcb000fff1a
:020bcc000fff19
:020bcd000fff18
:020bce000fff17
:020bcf000fff16
:020bd0000fff15
:020bd1000fff14
:020bd2000fff13
:020bd3000fff12
:020bd4000fff11
:020bd5000fff10
:020bd6000fff0f
:020bd7000fff0e
:020bd8000fff0d
:020bd9000fff0c
:020bda000fff0b
:020bdb000fff0a
:020bdc000fff09
:020bdd000fff08
:020bde000fff07
:020bdf000fff06
:020be0000fff05
:020be1000fff04
:020be2000fff03
:020be3000fff02
:020be4000fff01
:020be5000fff00
:020be6000fffff
:020be7000ffffe
:020be8000ffffd
:020be9000ffffc
:020bea000ffffb
:020beb000ffffa
:020bec000ffff9
:020bed000ffff8
:020bee000ffff7
:020bef000ffff6
:020bf0000ffff5
:020bf1000ffff4
:020bf2000ffff3
:020bf3000ffff2
:020bf4000ffff1
:020bf5000ffff0
:020bf6000fffef
:020bf7000fffee
:020bf8000fffed
:020bf9000fffec
:020bfa000fffeb
:020bfb000fffea
:020bfc000fffe9
:020bfd000fffe8
:020bfe000fffe7
:020bff000fffe6
:020c00000fffe4
:020c01000fffe3
:020c02000fffe2
:020c03000fffe1
:020c04000fffe0
:020c05000fffdf
:020c06000fffde
:020c07000fffdd
:020c08000fffdc
:020c09000fffdb
:020c0a000fffda
:020c0b000fffd9
:020c0c000fffd8
:020c0d000fffd7
:020c0e000fffd6
:020c0f000fffd5
:020c10000fffd4
:020c11000fffd3
:020c12000fffd2
:020c13000fffd1
:020c14000fffd0
:020c15000fffcf
:020c16000fffce
:020c17000fffcd
:020c18000fffcc
:020c19000fffcb
:020c1a000fffca
:020c1b000fffc9
:020c1c000fffc8
:020c1d000fffc7
:020c1e000fffc6
:020c1f000fffc5
:020c20000fffc4
:020c21000fffc3
:020c22000fffc2
:020c23000fffc1
:020c24000fffc0
:020c25000fffbf
:020c26000fffbe
:020c27000fffbd
:020c28000fffbc
:020c29000fffbb
:020c2a000fffba
:020c2b000fffb9
:020c2c000fffb8
:020c2d000fffb7
:020c2e000fffb6
:020c2f000fffb5
:020c30000fffb4
:020c31000fffb3
:020c32000fffb2
:020c33000fffb1
:020c34000fffb0
:020c35000fffaf
:020c36000fffae
:020c37000fffad
:020c38000fffac
:020c39000fffab
:020c3a000fffaa
:020c3b000fffa9
:020c3c000fffa8
:020c3d000fffa7
:020c3e000fffa6
:020c3f000fffa5
:020c40000fffa4
:020c41000fffa3
:020c42000fffa2
:020c43000fffa1
:020c44000fffa0
:020c45000fff9f
:020c46000fff9e
:020c47000fff9d
:020c48000fff9c
:020c49000fff9b
:020c4a000fff9a
:020c4b000fff99
:020c4c000fff98
:020c4d000fff97
:020c4e000fff96
:020c4f000fff95
:020c50000fff94
:020c51000fff93
:020c52000fff92
:020c53000fff91
:020c54000fff90
:020c55000fff8f
:020c56000fff8e
:020c57000fff8d
:020c58000fff8c
:020c59000fff8b
:020c5a000fff8a
:020c5b000fff89
:020c5c000fff88
:020c5d000fff87
:020c5e000fff86
:020c5f000fff85
:020c60000fff84
:020c61000fff83
:020c62000fff82
:020c63000fff81
:020c64000fff80
:020c65000fff7f
:020c66000fff7e
:020c67000fff7d
:020c68000fff7c
:020c69000fff7b
:020c6a000fff7a
:020c6b000fff79
:020c6c000fff78
:020c6d000fff77
:020c6e000fff76
:020c6f000fff75
:020c70000fff74
:020c71000fff73
:020c72000fff72
:020c73000fff71
:020c74000fff70
:020c75000fff6f
:020c76000fff6e
:020c77000fff6d
:020c78000fff6c
:020c79000fff6b
:020c7a000fff6a
:020c7b000fff69
:020c7c000fff68
:020c7d000fff67
:020c7e000fff66
:020c7f000fff65
:020c80000fff64
:020c81000fff63
:020c82000fff62
:020c83000fff61
:020c84000fff60
:020c85000fff5f
:020c86000fff5e
:020c87000fff5d
:020c88000fff5c
:020c89000fff5b
:020c8a000fff5a
:020c8b000fff59
:020c8c000fff58
:020c8d000fff57
:020c8e000fff56
:020c8f000fff55
:020c90000fff54
:020c91000fff53
:020c92000fff52
:020c93000fff51
:020c94000fff50
:020c95000fff4f
:020c96000fff4e
:020c97000fff4d
:020c98000fff4c
:020c99000fff4b
:020c9a000fff4a
:020c9b000fff49
:020c9c000fff48
:020c9d000fff47
:020c9e000fff46
:020c9f000fff45
:020ca0000fff44
:020ca1000fff43
:020ca2000fff42
:020ca3000fff41
:020ca4000fff40
:020ca5000fff3f
:020ca6000fff3e
:020ca7000fff3d
:020ca8000fff3c
:020ca9000fff3b
:020caa000fff3a
:020cab000fff39
:020cac000fff38
:020cad000fff37
:020cae000fff36
:020caf000fff35
:020cb0000fff34
:020cb1000fff33
:020cb2000fff32
:020cb3000fff31
:020cb4000fff30
:020cb5000fff2f
:020cb6000fff2e
:020cb7000fff2d
:020cb8000fff2c
:020cb9000fff2b
:020cba000fff2a
:020cbb000fff29
:020cbc000fff28
:020cbd000fff27
:020cbe000fff26
:020cbf000fff25
:020cc0000fff24
:020cc1000fff23
:020cc2000fff22
:020cc3000fff21
:020cc4000fff20
:020cc5000fff1f
:020cc6000fff1e
:020cc7000fff1d
:020cc8000fff1c
:020cc9000fff1b
:020cca000fff1a
:020ccb000fff19
:020ccc000fff18
:020ccd000fff17
:020cce000fff16
:020ccf000fff15
:020cd0000fff14
:020cd1000fff13
:020cd2000fff12
:020cd3000fff11
:020cd4000fff10
:020cd5000fff0f
:020cd6000fff0e
:020cd7000fff0d
:020cd8000fff0c
:020cd9000fff0b
:020cda000fff0a
:020cdb000fff09
:020cdc000fff08
:020cdd000fff07
:020cde000fff06
:020cdf000fff05
:020ce0000fff04
:020ce1000fff03
:020ce2000fff02
:020ce3000fff01
:020ce4000fff00
:020ce5000fffff
:020ce6000ffffe
:020ce7000ffffd
:020ce8000ffffc
:020ce9000ffffb
:020cea000ffffa
:020ceb000ffff9
:020cec000ffff8
:020ced000ffff7
:020cee000ffff6
:020cef000ffff5
:020cf0000ffff4
:020cf1000ffff3
:020cf2000ffff2
:020cf3000ffff1
:020cf4000ffff0
:020cf5000fffef
:020cf6000fffee
:020cf7000fffed
:020cf8000fffec
:020cf9000fffeb
:020cfa000fffea
:020cfb000fffe9
:020cfc000fffe8
:020cfd000fffe7
:020cfe000fffe6
:020cff000fffe5
:020d00000fffe3
:020d01000fffe2
:020d02000fffe1
:020d03000fffe0
:020d04000fffdf
:020d05000fffde
:020d06000fffdd
:020d07000fffdc
:020d08000fffdb
:020d09000fffda
:020d0a000fffd9
:020d0b000fffd8
:020d0c000fffd7
:020d0d000fffd6
:020d0e000fffd5
:020d0f000fffd4
:020d10000fffd3
:020d11000fffd2
:020d12000fffd1
:020d13000fffd0
:020d14000fffcf
:020d15000fffce
:020d16000fffcd
:020d17000fffcc
:020d18000fffcb
:020d19000fffca
:020d1a000fffc9
:020d1b000fffc8
:020d1c000fffc7
:020d1d000fffc6
:020d1e000fffc5
:020d1f000fffc4
:020d20000fffc3
:020d21000fffc2
:020d22000fffc1
:020d23000fffc0
:020d24000fffbf
:020d25000fffbe
:020d26000fffbd
:020d27000fffbc
:020d28000fffbb
:020d29000fffba
:020d2a000fffb9
:020d2b000fffb8
:020d2c000fffb7
:020d2d000fffb6
:020d2e000fffb5
:020d2f000fffb4
:020d30000fffb3
:020d31000fffb2
:020d32000fffb1
:020d33000fffb0
:020d34000fffaf
:020d35000fffae
:020d36000fffad
:020d37000fffac
:020d38000fffab
:020d39000fffaa
:020d3a000fffa9
:020d3b000fffa8
:020d3c000fffa7
:020d3d000fffa6
:020d3e000fffa5
:020d3f000fffa4
:020d40000fffa3
:020d41000fffa2
:020d42000fffa1
:020d43000fffa0
:020d44000fff9f
:020d45000fff9e
:020d46000fff9d
:020d47000fff9c
:020d48000fff9b
:020d49000fff9a
:020d4a000fff99
:020d4b000fff98
:020d4c000fff97
:020d4d000fff96
:020d4e000fff95
:020d4f000fff94
:020d50000fff93
:020d51000fff92
:020d52000fff91
:020d53000fff90
:020d54000fff8f
:020d55000fff8e
:020d56000fff8d
:020d57000fff8c
:020d58000fff8b
:020d59000fff8a
:020d5a000fff89
:020d5b000fff88
:020d5c000fff87
:020d5d000fff86
:020d5e000fff85
:020d5f000fff84
:020d60000fff83
:020d61000fff82
:020d62000fff81
:020d63000fff80
:020d64000fff7f
:020d65000fff7e
:020d66000fff7d
:020d67000fff7c
:020d68000fff7b
:020d69000fff7a
:020d6a000fff79
:020d6b000fff78
:020d6c000fff77
:020d6d000fff76
:020d6e000fff75
:020d6f000fff74
:020d70000fff73
:020d71000fff72
:020d72000fff71
:020d73000fff70
:020d74000fff6f
:020d75000fff6e
:020d76000fff6d
:020d77000fff6c
:020d78000fff6b
:020d79000fff6a
:020d7a000fff69
:020d7b000fff68
:020d7c000fff67
:020d7d000fff66
:020d7e000fff65
:020d7f000fff64
:020d80000fff63
:020d81000fff62
:020d82000fff61
:020d83000fff60
:020d84000fff5f
:020d85000fff5e
:020d86000fff5d
:020d87000fff5c
:020d88000fff5b
:020d89000fff5a
:020d8a000fff59
:020d8b000fff58
:020d8c000fff57
:020d8d000fff56
:020d8e000fff55
:020d8f000fff54
:020d90000fff53
:020d91000fff52
:020d92000fff51
:020d93000fff50
:020d94000fff4f
:020d95000fff4e
:020d96000fff4d
:020d97000fff4c
:020d98000fff4b
:020d99000fff4a
:020d9a000fff49
:020d9b000fff48
:020d9c000fff47
:020d9d000fff46
:020d9e000fff45
:020d9f000fff44
:020da0000fff43
:020da1000fff42
:020da2000fff41
:020da3000fff40
:020da4000fff3f
:020da5000fff3e
:020da6000fff3d
:020da7000fff3c
:020da8000fff3b
:020da9000fff3a
:020daa000fff39
:020dab000fff38
:020dac000fff37
:020dad000fff36
:020dae000fff35
:020daf000fff34
:020db0000fff33
:020db1000fff32
:020db2000fff31
:020db3000fff30
:020db4000fff2f
:020db5000fff2e
:020db6000fff2d
:020db7000fff2c
:020db8000fff2b
:020db9000fff2a
:020dba000fff29
:020dbb000fff28
:020dbc000fff27
:020dbd000fff26
:020dbe000fff25
:020dbf000fff24
:020dc0000fff23
:020dc1000fff22
:020dc2000fff21
:020dc3000fff20
:020dc4000fff1f
:020dc5000fff1e
:020dc6000fff1d
:020dc7000fff1c
:020dc8000fff1b
:020dc9000fff1a
:020dca000fff19
:020dcb000fff18
:020dcc000fff17
:020dcd000fff16
:020dce000fff15
:020dcf000fff14
:020dd0000fff13
:020dd1000fff12
:020dd2000fff11
:020dd3000fff10
:020dd4000fff0f
:020dd5000fff0e
:020dd6000fff0d
:020dd7000fff0c
:020dd8000fff0b
:020dd9000fff0a
:020dda000fff09
:020ddb000fff08
:020ddc000fff07
:020ddd000fff06
:020dde000fff05
:020ddf000fff04
:020de0000fff03
:020de1000fff02
:020de2000fff01
:020de3000fff00
:020de4000fffff
:020de5000ffffe
:020de6000ffffd
:020de7000ffffc
:020de8000ffffb
:020de9000ffffa
:020dea000ffff9
:020deb000ffff8
:020dec000ffff7
:020ded000ffff6
:020dee000ffff5
:020def000ffff4
:020df0000ffff3
:020df1000ffff2
:020df2000ffff1
:020df3000ffff0
:020df4000fffef
:020df5000fffee
:020df6000fffed
:020df7000fffec
:020df8000fffeb
:020df9000fffea
:020dfa000fffe9
:020dfb000fffe8
:020dfc000fffe7
:020dfd000fffe6
:020dfe000fffe5
:020dff000fffe4
:020e00000fffe2
:020e01000fffe1
:020e02000fffe0
:020e03000fffdf
:020e04000fffde
:020e05000fffdd
:020e06000fffdc
:020e07000fffdb
:020e08000fffda
:020e09000fffd9
:020e0a000fffd8
:020e0b000fffd7
:020e0c000fffd6
:020e0d000fffd5
:020e0e000fffd4
:020e0f000fffd3
:020e10000fffd2
:020e11000fffd1
:020e12000fffd0
:020e13000fffcf
:020e14000fffce
:020e15000fffcd
:020e16000fffcc
:020e17000fffcb
:020e18000fffca
:020e19000fffc9
:020e1a000fffc8
:020e1b000fffc7
:020e1c000fffc6
:020e1d000fffc5
:020e1e000fffc4
:020e1f000fffc3
:020e20000fffc2
:020e21000fffc1
:020e22000fffc0
:020e23000fffbf
:020e24000fffbe
:020e25000fffbd
:020e26000fffbc
:020e27000fffbb
:020e28000fffba
:020e29000fffb9
:020e2a000fffb8
:020e2b000fffb7
:020e2c000fffb6
:020e2d000fffb5
:020e2e000fffb4
:020e2f000fffb3
:020e30000fffb2
:020e31000fffb1
:020e32000fffb0
:020e33000fffaf
:020e34000fffae
:020e35000fffad
:020e36000fffac
:020e37000fffab
:020e38000fffaa
:020e39000fffa9
:020e3a000fffa8
:020e3b000fffa7
:020e3c000fffa6
:020e3d000fffa5
:020e3e000fffa4
:020e3f000fffa3
:020e40000fffa2
:020e41000fffa1
:020e42000fffa0
:020e43000fff9f
:020e44000fff9e
:020e45000fff9d
:020e46000fff9c
:020e47000fff9b
:020e48000fff9a
:020e49000fff99
:020e4a000fff98
:020e4b000fff97
:020e4c000fff96
:020e4d000fff95
:020e4e000fff94
:020e4f000fff93
:020e50000fff92
:020e51000fff91
:020e52000fff90
:020e53000fff8f
:020e54000fff8e
:020e55000fff8d
:020e56000fff8c
:020e57000fff8b
:020e58000fff8a
:020e59000fff89
:020e5a000fff88
:020e5b000fff87
:020e5c000fff86
:020e5d000fff85
:020e5e000fff84
:020e5f000fff83
:020e60000fff82
:020e61000fff81
:020e62000fff80
:020e63000fff7f
:020e64000fff7e
:020e65000fff7d
:020e66000fff7c
:020e67000fff7b
:020e68000fff7a
:020e69000fff79
:020e6a000fff78
:020e6b000fff77
:020e6c000fff76
:020e6d000fff75
:020e6e000fff74
:020e6f000fff73
:020e70000fff72
:020e71000fff71
:020e72000fff70
:020e73000fff6f
:020e74000fff6e
:020e75000fff6d
:020e76000fff6c
:020e77000fff6b
:020e78000fff6a
:020e79000fff69
:020e7a000fff68
:020e7b000fff67
:020e7c000fff66
:020e7d000fff65
:020e7e000fff64
:020e7f000fff63
:020e80000fff62
:020e81000fff61
:020e82000fff60
:020e83000fff5f
:020e84000fff5e
:020e85000fff5d
:020e86000fff5c
:020e87000fff5b
:020e88000fff5a
:020e89000fff59
:020e8a000fff58
:020e8b000fff57
:020e8c000fff56
:020e8d000fff55
:020e8e000fff54
:020e8f000fff53
:020e90000fff52
:020e91000fff51
:020e92000fff50
:020e93000fff4f
:020e94000fff4e
:020e95000fff4d
:020e96000fff4c
:020e97000fff4b
:020e98000fff4a
:020e99000fff49
:020e9a000fff48
:020e9b000fff47
:020e9c000fff46
:020e9d000fff45
:020e9e000fff44
:020e9f000fff43
:020ea0000fff42
:020ea1000fff41
:020ea2000fff40
:020ea3000fff3f
:020ea4000fff3e
:020ea5000fff3d
:020ea6000fff3c
:020ea7000fff3b
:020ea8000fff3a
:020ea9000fff39
:020eaa000fff38
:020eab000fff37
:020eac000fff36
:020ead000fff35
:020eae000fff34
:020eaf000fff33
:020eb0000fff32
:020eb1000fff31
:020eb2000fff30
:020eb3000fff2f
:020eb4000fff2e
:020eb5000fff2d
:020eb6000fff2c
:020eb7000fff2b
:020eb8000fff2a
:020eb9000fff29
:020eba000fff28
:020ebb000fff27
:020ebc000fff26
:020ebd000fff25
:020ebe000fff24
:020ebf000fff23
:020ec0000fff22
:020ec1000fff21
:020ec2000fff20
:020ec3000fff1f
:020ec4000fff1e
:020ec5000fff1d
:020ec6000fff1c
:020ec7000fff1b
:020ec8000fff1a
:020ec9000fff19
:020eca000fff18
:020ecb000fff17
:020ecc000fff16
:020ecd000fff15
:020ece000fff14
:020ecf000fff13
:020ed0000fff12
:020ed1000fff11
:020ed2000fff10
:020ed3000fff0f
:020ed4000fff0e
:020ed5000fff0d
:020ed6000fff0c
:020ed7000fff0b
:020ed8000fff0a
:020ed9000fff09
:020eda000fff08
:020edb000fff07
:020edc000fff06
:020edd000fff05
:020ede000fff04
:020edf000fff03
:020ee0000fff02
:020ee1000fff01
:020ee2000fff00
:020ee3000fffff
:020ee4000ffffe
:020ee5000ffffd
:020ee6000ffffc
:020ee7000ffffb
:020ee8000ffffa
:020ee9000ffff9
:020eea000ffff8
:020eeb000ffff7
:020eec000ffff6
:020eed000ffff5
:020eee000ffff4
:020eef000ffff3
:020ef0000ffff2
:020ef1000ffff1
:020ef2000ffff0
:020ef3000fffef
:020ef4000fffee
:020ef5000fffed
:020ef6000fffec
:020ef7000fffeb
:020ef8000fffea
:020ef9000fffe9
:020efa000fffe8
:020efb000fffe7
:020efc000fffe6
:020efd000fffe5
:020efe000fffe4
:020eff000fffe3
:020f00000fffe1
:020f01000fffe0
:020f02000fffdf
:020f03000fffde
:020f04000fffdd
:020f05000fffdc
:020f06000fffdb
:020f07000fffda
:020f08000fffd9
:020f09000fffd8
:020f0a000fffd7
:020f0b000fffd6
:020f0c000fffd5
:020f0d000fffd4
:020f0e000fffd3
:020f0f000fffd2
:020f10000fffd1
:020f11000fffd0
:020f12000fffcf
:020f13000fffce
:020f14000fffcd
:020f15000fffcc
:020f16000fffcb
:020f17000fffca
:020f18000fffc9
:020f19000fffc8
:020f1a000fffc7
:020f1b000fffc6
:020f1c000fffc5
:020f1d000fffc4
:020f1e000fffc3
:020f1f000fffc2
:020f20000fffc1
:020f21000fffc0
:020f22000fffbf
:020f23000fffbe
:020f24000fffbd
:020f25000fffbc
:020f26000fffbb
:020f27000fffba
:020f28000fffb9
:020f29000fffb8
:020f2a000fffb7
:020f2b000fffb6
:020f2c000fffb5
:020f2d000fffb4
:020f2e000fffb3
:020f2f000fffb2
:020f30000fffb1
:020f31000fffb0
:020f32000fffaf
:020f33000fffae
:020f34000fffad
:020f35000fffac
:020f36000fffab
:020f37000fffaa
:020f38000fffa9
:020f39000fffa8
:020f3a000fffa7
:020f3b000fffa6
:020f3c000fffa5
:020f3d000fffa4
:020f3e000fffa3
:020f3f000fffa2
:020f40000fffa1
:020f41000fffa0
:020f42000fff9f
:020f43000fff9e
:020f44000fff9d
:020f45000fff9c
:020f46000fff9b
:020f47000fff9a
:020f48000fff99
:020f49000fff98
:020f4a000fff97
:020f4b000fff96
:020f4c000fff95
:020f4d000fff94
:020f4e000fff93
:020f4f000fff92
:020f50000fff91
:020f51000fff90
:020f52000fff8f
:020f53000fff8e
:020f54000fff8d
:020f55000fff8c
:020f56000fff8b
:020f57000fff8a
:020f58000fff89
:020f59000fff88
:020f5a000fff87
:020f5b000fff86
:020f5c000fff85
:020f5d000fff84
:020f5e000fff83
:020f5f000fff82
:020f60000fff81
:020f61000fff80
:020f62000fff7f
:020f63000fff7e
:020f64000fff7d
:020f65000fff7c
:020f66000fff7b
:020f67000fff7a
:020f68000fff79
:020f69000fff78
:020f6a000fff77
:020f6b000fff76
:020f6c000fff75
:020f6d000fff74
:020f6e000fff73
:020f6f000fff72
:020f70000fff71
:020f71000fff70
:020f72000fff6f
:020f73000fff6e
:020f74000fff6d
:020f75000fff6c
:020f76000fff6b
:020f77000fff6a
:020f78000fff69
:020f79000fff68
:020f7a000fff67
:020f7b000fff66
:020f7c000fff65
:020f7d000fff64
:020f7e000fff63
:020f7f000fff62
:020f80000fff61
:020f81000fff60
:020f82000fff5f
:020f83000fff5e
:020f84000fff5d
:020f85000fff5c
:020f86000fff5b
:020f87000fff5a
:020f88000fff59
:020f89000fff58
:020f8a000fff57
:020f8b000fff56
:020f8c000fff55
:020f8d000fff54
:020f8e000fff53
:020f8f000fff52
:020f90000fff51
:020f91000fff50
:020f92000fff4f
:020f93000fff4e
:020f94000fff4d
:020f95000fff4c
:020f96000fff4b
:020f97000fff4a
:020f98000fff49
:020f99000fff48
:020f9a000fff47
:020f9b000fff46
:020f9c000fff45
:020f9d000fff44
:020f9e000fff43
:020f9f000fff42
